{
  "contractName": "SupplyChain",
  "abi": [
    {
      "anonymous": false,
      "inputs": [
        {
          "indexed": false,
          "internalType": "uint256",
          "name": "id",
          "type": "uint256"
        },
        {
          "indexed": false,
          "internalType": "uint256",
          "name": "weight",
          "type": "uint256"
        },
        {
          "indexed": false,
          "internalType": "uint256",
          "name": "price",
          "type": "uint256"
        }
      ],
      "name": "ProductCreated",
      "type": "event"
    },
    {
      "anonymous": false,
      "inputs": [
        {
          "indexed": false,
          "internalType": "uint256",
          "name": "id",
          "type": "uint256"
        },
        {
          "indexed": false,
          "internalType": "address",
          "name": "buyer",
          "type": "address"
        }
      ],
      "name": "ProductPurchased",
      "type": "event"
    },
    {
      "anonymous": false,
      "inputs": [
        {
          "indexed": false,
          "internalType": "uint256",
          "name": "id",
          "type": "uint256"
        },
        {
          "indexed": false,
          "internalType": "uint256",
          "name": "stage",
          "type": "uint256"
        }
      ],
      "name": "ProductUpdated",
      "type": "event"
    },
    {
      "inputs": [],
      "name": "productCount",
      "outputs": [
        {
          "internalType": "uint256",
          "name": "",
          "type": "uint256"
        }
      ],
      "stateMutability": "view",
      "type": "function",
      "constant": true
    },
    {
      "inputs": [
        {
          "internalType": "uint256",
          "name": "",
          "type": "uint256"
        }
      ],
      "name": "productIds",
      "outputs": [
        {
          "internalType": "uint256",
          "name": "",
          "type": "uint256"
        }
      ],
      "stateMutability": "view",
      "type": "function",
      "constant": true
    },
    {
      "inputs": [
        {
          "internalType": "uint256",
          "name": "",
          "type": "uint256"
        }
      ],
      "name": "products",
      "outputs": [
        {
          "internalType": "uint256",
          "name": "id",
          "type": "uint256"
        },
        {
          "internalType": "uint256",
          "name": "weight",
          "type": "uint256"
        },
        {
          "internalType": "uint256",
          "name": "price",
          "type": "uint256"
        },
        {
          "internalType": "uint256",
          "name": "stage",
          "type": "uint256"
        }
      ],
      "stateMutability": "view",
      "type": "function",
      "constant": true
    },
    {
      "inputs": [
        {
          "internalType": "address",
          "name": "",
          "type": "address"
        },
        {
          "internalType": "uint256",
          "name": "",
          "type": "uint256"
        }
      ],
      "name": "purchasedProducts",
      "outputs": [
        {
          "internalType": "uint256",
          "name": "",
          "type": "uint256"
        }
      ],
      "stateMutability": "view",
      "type": "function",
      "constant": true
    },
    {
      "inputs": [
        {
          "internalType": "uint256",
          "name": "_id",
          "type": "uint256"
        },
        {
          "internalType": "uint256",
          "name": "_weight",
          "type": "uint256"
        },
        {
          "internalType": "uint256",
          "name": "_price",
          "type": "uint256"
        }
      ],
      "name": "createProduct",
      "outputs": [],
      "stateMutability": "nonpayable",
      "type": "function"
    },
    {
      "inputs": [
        {
          "internalType": "uint256",
          "name": "_id",
          "type": "uint256"
        },
        {
          "internalType": "uint256",
          "name": "_stage",
          "type": "uint256"
        }
      ],
      "name": "updateProductStage",
      "outputs": [],
      "stateMutability": "nonpayable",
      "type": "function"
    },
    {
      "inputs": [
        {
          "internalType": "uint256",
          "name": "_id",
          "type": "uint256"
        }
      ],
      "name": "purchaseProduct",
      "outputs": [],
      "stateMutability": "payable",
      "type": "function",
      "payable": true
    },
    {
      "inputs": [],
      "name": "getPurchasedProductIds",
      "outputs": [
        {
          "internalType": "uint256[]",
          "name": "",
          "type": "uint256[]"
        }
      ],
      "stateMutability": "view",
      "type": "function",
      "constant": true
    },
    {
      "inputs": [],
      "name": "getAllProductIds",
      "outputs": [
        {
          "internalType": "uint256[]",
          "name": "",
          "type": "uint256[]"
        }
      ],
      "stateMutability": "view",
      "type": "function",
      "constant": true
    },
    {
      "inputs": [
        {
          "internalType": "uint256",
          "name": "_id",
          "type": "uint256"
        }
      ],
      "name": "getProduct",
      "outputs": [
        {
          "internalType": "uint256",
          "name": "",
          "type": "uint256"
        },
        {
          "internalType": "uint256",
          "name": "",
          "type": "uint256"
        },
        {
          "internalType": "uint256",
          "name": "",
          "type": "uint256"
        },
        {
          "internalType": "uint256",
          "name": "",
          "type": "uint256"
        }
      ],
      "stateMutability": "view",
      "type": "function",
      "constant": true
    },
    {
      "inputs": [
        {
          "internalType": "uint256",
          "name": "_id",
          "type": "uint256"
        }
      ],
      "name": "acceptShipment",
      "outputs": [],
      "stateMutability": "nonpayable",
      "type": "function"
    },
    {
      "inputs": [
        {
          "internalType": "uint256",
          "name": "_id",
          "type": "uint256"
        }
      ],
      "name": "confirmDelivery",
      "outputs": [],
      "stateMutability": "nonpayable",
      "type": "function"
    }
  ],
  "bytecode": "0x6080604052600060035534801561001557600080fd5b50611331806100256000396000f3fe6080604052600436106100a75760003560e01c8063b9db15b411610064578063b9db15b4146101c4578063cb51bba914610204578063e0f6ef8714610241578063f7e194b81461026c578063fc14480614610295578063fd84cb97146102be576100a7565b80632e663717146100ac57806338e76a03146100d55780635df87e03146100f157806363cdd1561461012e578063663c01af146101595780637acc0b2014610184575b600080fd5b3480156100b857600080fd5b506100d360048036038101906100ce9190610b90565b6102e7565b005b6100ef60048036038101906100ea9190610b67565b6103db565b005b3480156100fd57600080fd5b5061011860048036038101906101139190610b2b565b610573565b6040516101259190611070565b60405180910390f35b34801561013a57600080fd5b506101436105a4565b6040516101509190610f4e565b60405180910390f35b34801561016557600080fd5b5061016e610639565b60405161017b9190610f4e565b60405180910390f35b34801561019057600080fd5b506101ab60048036038101906101a69190610b67565b610691565b6040516101bb9493929190611166565b60405180910390f35b3480156101d057600080fd5b506101eb60048036038101906101e69190610b67565b6106c1565b6040516101fb9493929190611166565b60405180910390f35b34801561021057600080fd5b5061022b60048036038101906102269190610b67565b61078d565b6040516102389190611070565b60405180910390f35b34801561024d57600080fd5b506102566107b1565b6040516102639190611070565b60405180910390f35b34801561027857600080fd5b50610293600480360381019061028e9190610b67565b6107b7565b005b3480156102a157600080fd5b506102bc60048036038101906102b79190610bcc565b6108c0565b005b3480156102ca57600080fd5b506102e560048036038101906102e09190610b67565b6109f8565b005b6000806000848152602001908152602001600020600001541415610340576040517f08c379a000000000000000000000000000000000000000000000000000000000815260040161033790611010565b60405180910390fd5b6005811115610384576040517f08c379a000000000000000000000000000000000000000000000000000000000815260040161037b90610f70565b60405180910390fd5b80600080848152602001908152602001600020600301819055507f1a58b4c176a67828ebe2456bc637af85e69b115be11597e049b0669d13bea99982826040516103cf929190611106565b60405180910390a15050565b60008060008381526020019081526020016000209050600081600001541415610439576040517f08c379a000000000000000000000000000000000000000000000000000000000815260040161043090610f90565b60405180910390fd5b6003816003015410610480576040517f08c379a000000000000000000000000000000000000000000000000000000000815260040161047790611030565b60405180910390fd5b806002015434146104c6576040517f08c379a00000000000000000000000000000000000000000000000000000000081526004016104bd90610fd0565b60405180910390fd5b60038160030181905550600160003373ffffffffffffffffffffffffffffffffffffffff1673ffffffffffffffffffffffffffffffffffffffff1681526020019081526020016000208290806001815401808255809150506001900390600052602060002001600090919091909150557f9ad4ecfaf27ea0cbeebee0ed92fe15c8a84975f1e3d45ccfc526d7751dcf98ff823360405161056792919061108b565b60405180910390a15050565b6001602052816000526040600020818154811061058f57600080fd5b90600052602060002001600091509150505481565b6060600160003373ffffffffffffffffffffffffffffffffffffffff1673ffffffffffffffffffffffffffffffffffffffff16815260200190815260200160002080548060200260200160405190810160405280929190818152602001828054801561062f57602002820191906000526020600020905b81548152602001906001019080831161061b575b5050505050905090565b6060600280548060200260200160405190810160405280929190818152602001828054801561068757602002820191906000526020600020905b815481526020019060010190808311610673575b5050505050905090565b60006020528060005260406000206000915090508060000154908060010154908060020154908060030154905084565b6000806000806000806000878152602001908152602001600020600001541415610720576040517f08c379a000000000000000000000000000000000000000000000000000000000815260040161071790611010565b60405180910390fd5b6000806000878152602001908152602001600020604051806080016040529081600082015481526020016001820154815260200160028201548152602001600382015481525050905080600001518160200151826040015183606001519450945094509450509193509193565b6002818154811061079d57600080fd5b906000526020600020016000915090505481565b60035481565b6000806000838152602001908152602001600020600001541415610810576040517f08c379a000000000000000000000000000000000000000000000000000000000815260040161080790611010565b60405180910390fd5b60036000808381526020019081526020016000206003015414610868576040517f08c379a000000000000000000000000000000000000000000000000000000000815260040161085f90611050565b60405180910390fd5b6001600080838152602001908152602001600020600301819055507f1a58b4c176a67828ebe2456bc637af85e69b115be11597e049b0669d13bea9998160016040516108b59291906110b4565b60405180910390a150565b60008060008581526020019081526020016000206000015414610918576040517f08c379a000000000000000000000000000000000000000000000000000000000815260040161090f90610ff0565b60405180910390fd5b6003600081548092919061092b90611255565b9190505550604051806080016040528084815260200183815260200182815260200160008152506000808581526020019081526020016000206000820151816000015560208201518160010155604082015181600201556060820151816003015590505060028390806001815401808255809150506001900390600052602060002001600090919091909150557f8cc8407e8e312793609edf72bf9634abea0b768b26e1dfbbd3a16e546ab8dc778383836040516109eb9392919061112f565b60405180910390a1505050565b6000806000838152602001908152602001600020600001541415610a51576040517f08c379a0000000000000000000000000000000000000000000000000000000008152600401610a4890611010565b60405180910390fd5b60016000808381526020019081526020016000206003015414610aa9576040517f08c379a0000000000000000000000000000000000000000000000000000000008152600401610aa090610fb0565b60405180910390fd5b6004600080838152602001908152602001600020600301819055507f1a58b4c176a67828ebe2456bc637af85e69b115be11597e049b0669d13bea999816004604051610af69291906110dd565b60405180910390a150565b600081359050610b10816112cd565b92915050565b600081359050610b25816112e4565b92915050565b60008060408385031215610b3e57600080fd5b6000610b4c85828601610b01565b9250506020610b5d85828601610b16565b9150509250929050565b600060208284031215610b7957600080fd5b6000610b8784828501610b16565b91505092915050565b60008060408385031215610ba357600080fd5b6000610bb185828601610b16565b9250506020610bc285828601610b16565b9150509250929050565b600080600060608486031215610be157600080fd5b6000610bef86828701610b16565b9350506020610c0086828701610b16565b9250506040610c1186828701610b16565b9150509250925092565b6000610c278383610f30565b60208301905092915050565b610c3c816111f5565b82525050565b6000610c4d826111bb565b610c5781856111d3565b9350610c62836111ab565b8060005b83811015610c93578151610c7a8882610c1b565b9750610c85836111c6565b925050600181019050610c66565b5085935050505092915050565b610ca981611231565b82525050565b610cb881611243565b82525050565b6000610ccb600d836111e4565b91507f496e76616c6964207374616765000000000000000000000000000000000000006000830152602082019050919050565b6000610d0b6016836111e4565b91507f50726f6475637420646f6573206e6f74206578697374000000000000000000006000830152602082019050919050565b6000610d4b602a836111e4565b91507f50726f64756374206d75737420626520696e207472616e73697420746f20626560008301527f2064656c697665726564000000000000000000000000000000000000000000006020830152604082019050919050565b6000610db16014836111e4565b91507f496e636f72726563742070726963652073656e740000000000000000000000006000830152602082019050919050565b6000610df16016836111e4565b91507f50726f6475637420616c726561647920657869737473000000000000000000006000830152602082019050919050565b6000610e316011836111e4565b91507f50726f64756374206e6f7420666f756e640000000000000000000000000000006000830152602082019050919050565b6000610e716043836111e4565b91507f50726f647563742068617320616c7265616479206265656e207075726368617360008301527f6564206f72206973206e6f7420617661696c61626c6520666f7220707572636860208301527f61736500000000000000000000000000000000000000000000000000000000006040830152606082019050919050565b6000610efd601f836111e4565b91507f50726f64756374206d75737420626520707572636861736564206669727374006000830152602082019050919050565b610f3981611227565b82525050565b610f4881611227565b82525050565b60006020820190508181036000830152610f688184610c42565b905092915050565b60006020820190508181036000830152610f8981610cbe565b9050919050565b60006020820190508181036000830152610fa981610cfe565b9050919050565b60006020820190508181036000830152610fc981610d3e565b9050919050565b60006020820190508181036000830152610fe981610da4565b9050919050565b6000602082019050818103600083015261100981610de4565b9050919050565b6000602082019050818103600083015261102981610e24565b9050919050565b6000602082019050818103600083015261104981610e64565b9050919050565b6000602082019050818103600083015261106981610ef0565b9050919050565b60006020820190506110856000830184610f3f565b92915050565b60006040820190506110a06000830185610f3f565b6110ad6020830184610c33565b9392505050565b60006040820190506110c96000830185610f3f565b6110d66020830184610ca0565b9392505050565b60006040820190506110f26000830185610f3f565b6110ff6020830184610caf565b9392505050565b600060408201905061111b6000830185610f3f565b6111286020830184610f3f565b9392505050565b60006060820190506111446000830186610f3f565b6111516020830185610f3f565b61115e6040830184610f3f565b949350505050565b600060808201905061117b6000830187610f3f565b6111886020830186610f3f565b6111956040830185610f3f565b6111a26060830184610f3f565b95945050505050565b6000819050602082019050919050565b600081519050919050565b6000602082019050919050565b600082825260208201905092915050565b600082825260208201905092915050565b600061120082611207565b9050919050565b600073ffffffffffffffffffffffffffffffffffffffff82169050919050565b6000819050919050565b600061123c82611227565b9050919050565b600061124e82611227565b9050919050565b600061126082611227565b91507fffffffffffffffffffffffffffffffffffffffffffffffffffffffffffffffff8214156112935761129261129e565b5b600182019050919050565b7f4e487b7100000000000000000000000000000000000000000000000000000000600052601160045260246000fd5b6112d6816111f5565b81146112e157600080fd5b50565b6112ed81611227565b81146112f857600080fd5b5056fea2646970667358221220767a3b8d5ea61386382e6b124e66ac2b6fdb6a822bc0b5ea0b6bd69904803bdc64736f6c63430008000033",
  "immutableReferences": {},
  "source": "// SPDX-License-Identifier: MIT\r\npragma solidity ^0.8.0;\r\n\r\ncontract SupplyChain {\r\n    struct Product {\r\n        uint id;\r\n        uint weight;\r\n        uint price;\r\n        uint stage;\r\n    }\r\n\r\n    mapping(uint => Product) public products; // Stores product details\r\n    mapping(address => uint[]) public purchasedProducts; // Tracks purchased products by each address\r\n    uint[] public productIds; // Array to store product IDs for easy retrieval\r\n    uint public productCount = 0;\r\n\r\n    event ProductCreated(uint id, uint weight, uint price);\r\n    event ProductUpdated(uint id, uint stage);\r\n    event ProductPurchased(uint id, address buyer); // Event for product purchase\r\n\r\n    // Function to create a new product\r\n    function createProduct(uint _id, uint _weight, uint _price) public {\r\n        require(products[_id].id == 0, \"Product already exists\");\r\n\r\n        productCount++;\r\n        products[_id] = Product(_id, _weight, _price, 0); // Default stage is 0 (manufactured)\r\n        productIds.push(_id); // Add the ID to the array\r\n        emit ProductCreated(_id, _weight, _price);\r\n    }\r\n\r\n    // Function to update the product stage (e.g., from manufactured to shipped)\r\n    function updateProductStage(uint _id, uint _stage) public {\r\n        require(products[_id].id != 0, \"Product not found\");\r\n        require(_stage <= 5, \"Invalid stage\");\r\n        products[_id].stage = _stage;\r\n        emit ProductUpdated(_id, _stage);\r\n    }\r\n\r\n    // Function to purchase a product\r\n    function purchaseProduct(uint _id) public payable {\r\n        Product storage product = products[_id];\r\n\r\n        // Check if the product exists and is available for purchase (stage must be less than 3)\r\n        require(product.id != 0, \"Product does not exist\");\r\n        require(product.stage < 3, \"Product has already been purchased or is not available for purchase\");\r\n        require(msg.value == product.price, \"Incorrect price sent\");\r\n\r\n        // Mark the product as purchased (stage = 3)\r\n        product.stage = 3;\r\n\r\n        // Store the product in the purchasedProducts mapping for the sender\r\n        purchasedProducts[msg.sender].push(_id);\r\n\r\n        // Emit an event to signal the purchase\r\n        emit ProductPurchased(_id, msg.sender);\r\n    }\r\n\r\n    // Function to get all product IDs purchased by the sender\r\n    function getPurchasedProductIds() public view returns (uint[] memory) {\r\n        return purchasedProducts[msg.sender];\r\n    }\r\n\r\n    // Function to get all product IDs (for displaying all products)\r\n    function getAllProductIds() public view returns (uint[] memory) {\r\n        return productIds;\r\n    }\r\n\r\n    // Function to get product details\r\n    function getProduct(uint _id) public view returns (uint, uint, uint, uint) {\r\n        require(products[_id].id != 0, \"Product not found\");\r\n        Product memory p = products[_id];\r\n        return (p.id, p.weight, p.price, p.stage);\r\n    }\r\n    // Function to accept shipment (moves product to \"Shipped\" stage)\r\n    function acceptShipment(uint _id) public {\r\n        require(products[_id].id != 0, \"Product not found\");\r\n        require(products[_id].stage == 3, \"Product must be purchased first\");\r\n\r\n        products[_id].stage = 1; // Update to \"Shipped\"\r\n        emit ProductUpdated(_id, 1);\r\n    }\r\n\r\n    // Function to confirm delivery (moves product to \"Delivered\" stage)\r\n    function confirmDelivery(uint _id) public {\r\n        require(products[_id].id != 0, \"Product not found\");\r\n        require(products[_id].stage == 1, \"Product must be in transit to be delivered\");\r\n\r\n        products[_id].stage = 4; // Update to \"Delivered\"\r\n        emit ProductUpdated(_id, 4);\r\n    }\r\n\r\n}",
  "sourcePath": "C:\\Users\\ragha\\OneDrive\\Desktop\\capstone\\contracts\\SupplyChain.sol",
  "compiler": {
    "name": "solc",
    "version": "0.8.0+commit.c7dfd78e.Emscripten.clang"
  },
  "schemaVersion": "3.4.16",
  "updatedAt": "2025-04-23T01:14:24.351Z",
  "networkType": "ethereum",
  "devdoc": {
    "kind": "dev",
    "methods": {},
    "version": 1
  },
  "userdoc": {
    "kind": "user",
    "methods": {},
    "version": 1
  }
}