{
  "contractName": "SupplyChain",
  "abi": [
    {
      "anonymous": false,
      "inputs": [
        {
          "indexed": false,
          "internalType": "uint256",
          "name": "id",
          "type": "uint256"
        },
        {
          "indexed": false,
          "internalType": "uint256",
          "name": "weight",
          "type": "uint256"
        },
        {
          "indexed": false,
          "internalType": "uint256",
          "name": "price",
          "type": "uint256"
        }
      ],
      "name": "ProductCreated",
      "type": "event"
    },
    {
      "anonymous": false,
      "inputs": [
        {
          "indexed": false,
          "internalType": "uint256",
          "name": "id",
          "type": "uint256"
        },
        {
          "indexed": false,
          "internalType": "address",
          "name": "buyer",
          "type": "address"
        }
      ],
      "name": "ProductPurchased",
      "type": "event"
    },
    {
      "anonymous": false,
      "inputs": [
        {
          "indexed": false,
          "internalType": "uint256",
          "name": "id",
          "type": "uint256"
        },
        {
          "indexed": false,
          "internalType": "uint256",
          "name": "stage",
          "type": "uint256"
        }
      ],
      "name": "ProductUpdated",
      "type": "event"
    },
    {
      "inputs": [],
      "name": "productCount",
      "outputs": [
        {
          "internalType": "uint256",
          "name": "",
          "type": "uint256"
        }
      ],
      "stateMutability": "view",
      "type": "function",
      "constant": true
    },
    {
      "inputs": [
        {
          "internalType": "uint256",
          "name": "",
          "type": "uint256"
        }
      ],
      "name": "productIds",
      "outputs": [
        {
          "internalType": "uint256",
          "name": "",
          "type": "uint256"
        }
      ],
      "stateMutability": "view",
      "type": "function",
      "constant": true
    },
    {
      "inputs": [
        {
          "internalType": "uint256",
          "name": "",
          "type": "uint256"
        }
      ],
      "name": "products",
      "outputs": [
        {
          "internalType": "uint256",
          "name": "id",
          "type": "uint256"
        },
        {
          "internalType": "uint256",
          "name": "weight",
          "type": "uint256"
        },
        {
          "internalType": "uint256",
          "name": "price",
          "type": "uint256"
        },
        {
          "internalType": "uint256",
          "name": "stage",
          "type": "uint256"
        }
      ],
      "stateMutability": "view",
      "type": "function",
      "constant": true
    },
    {
      "inputs": [
        {
          "internalType": "address",
          "name": "",
          "type": "address"
        },
        {
          "internalType": "uint256",
          "name": "",
          "type": "uint256"
        }
      ],
      "name": "purchasedProducts",
      "outputs": [
        {
          "internalType": "uint256",
          "name": "",
          "type": "uint256"
        }
      ],
      "stateMutability": "view",
      "type": "function",
      "constant": true
    },
    {
      "inputs": [
        {
          "internalType": "uint256",
          "name": "_id",
          "type": "uint256"
        },
        {
          "internalType": "uint256",
          "name": "_weight",
          "type": "uint256"
        },
        {
          "internalType": "uint256",
          "name": "_price",
          "type": "uint256"
        }
      ],
      "name": "createProduct",
      "outputs": [],
      "stateMutability": "nonpayable",
      "type": "function"
    },
    {
      "inputs": [
        {
          "internalType": "uint256",
          "name": "_id",
          "type": "uint256"
        },
        {
          "internalType": "uint256",
          "name": "_stage",
          "type": "uint256"
        }
      ],
      "name": "updateProductStage",
      "outputs": [],
      "stateMutability": "nonpayable",
      "type": "function"
    },
    {
      "inputs": [
        {
          "internalType": "uint256",
          "name": "_id",
          "type": "uint256"
        }
      ],
      "name": "purchaseProduct",
      "outputs": [],
      "stateMutability": "payable",
      "type": "function",
      "payable": true
    },
    {
      "inputs": [],
      "name": "getPurchasedProductIds",
      "outputs": [
        {
          "internalType": "uint256[]",
          "name": "",
          "type": "uint256[]"
        }
      ],
      "stateMutability": "view",
      "type": "function",
      "constant": true
    },
    {
      "inputs": [],
      "name": "getAllProductIds",
      "outputs": [
        {
          "internalType": "uint256[]",
          "name": "",
          "type": "uint256[]"
        }
      ],
      "stateMutability": "view",
      "type": "function",
      "constant": true
    },
    {
      "inputs": [
        {
          "internalType": "uint256",
          "name": "_id",
          "type": "uint256"
        }
      ],
      "name": "getProduct",
      "outputs": [
        {
          "internalType": "uint256",
          "name": "",
          "type": "uint256"
        },
        {
          "internalType": "uint256",
          "name": "",
          "type": "uint256"
        },
        {
          "internalType": "uint256",
          "name": "",
          "type": "uint256"
        },
        {
          "internalType": "uint256",
          "name": "",
          "type": "uint256"
        }
      ],
      "stateMutability": "view",
      "type": "function",
      "constant": true
    },
    {
      "inputs": [
        {
          "internalType": "uint256",
          "name": "_id",
          "type": "uint256"
        }
      ],
      "name": "acceptShipment",
      "outputs": [],
      "stateMutability": "nonpayable",
      "type": "function"
    }
  ],
  "bytecode": "0x6080604052600060035534801561001557600080fd5b50611124806100256000396000f3fe60806040526004361061009c5760003560e01c80637acc0b20116100645780637acc0b2014610179578063b9db15b4146101b9578063cb51bba9146101f9578063e0f6ef8714610236578063f7e194b814610261578063fc1448061461028a5761009c565b80632e663717146100a157806338e76a03146100ca5780635df87e03146100e657806363cdd15614610123578063663c01af1461014e575b600080fd5b3480156100ad57600080fd5b506100c860048036038101906100c39190610a53565b6102b3565b005b6100e460048036038101906100df9190610a2a565b6103a7565b005b3480156100f257600080fd5b5061010d600480360381019061010891906109ee565b61053f565b60405161011a9190610e9e565b60405180910390f35b34801561012f57600080fd5b50610138610570565b6040516101459190610d9c565b60405180910390f35b34801561015a57600080fd5b50610163610605565b6040516101709190610d9c565b60405180910390f35b34801561018557600080fd5b506101a0600480360381019061019b9190610a2a565b61065d565b6040516101b09493929190610f6b565b60405180910390f35b3480156101c557600080fd5b506101e060048036038101906101db9190610a2a565b61068d565b6040516101f09493929190610f6b565b60405180910390f35b34801561020557600080fd5b50610220600480360381019061021b9190610a2a565b610759565b60405161022d9190610e9e565b60405180910390f35b34801561024257600080fd5b5061024b61077d565b6040516102589190610e9e565b60405180910390f35b34801561026d57600080fd5b5061028860048036038101906102839190610a2a565b610783565b005b34801561029657600080fd5b506102b160048036038101906102ac9190610a8f565b61088c565b005b600080600084815260200190815260200160002060000154141561030c576040517f08c379a000000000000000000000000000000000000000000000000000000000815260040161030390610e3e565b60405180910390fd5b6005811115610350576040517f08c379a000000000000000000000000000000000000000000000000000000000815260040161034790610dbe565b60405180910390fd5b80600080848152602001908152602001600020600301819055507f1a58b4c176a67828ebe2456bc637af85e69b115be11597e049b0669d13bea999828260405161039b929190610f0b565b60405180910390a15050565b60008060008381526020019081526020016000209050600081600001541415610405576040517f08c379a00000000000000000000000000000000000000000000000000000000081526004016103fc90610dde565b60405180910390fd5b600381600301541061044c576040517f08c379a000000000000000000000000000000000000000000000000000000000815260040161044390610e5e565b60405180910390fd5b80600201543414610492576040517f08c379a000000000000000000000000000000000000000000000000000000000815260040161048990610dfe565b60405180910390fd5b60038160030181905550600160003373ffffffffffffffffffffffffffffffffffffffff1673ffffffffffffffffffffffffffffffffffffffff1681526020019081526020016000208290806001815401808255809150506001900390600052602060002001600090919091909150557f9ad4ecfaf27ea0cbeebee0ed92fe15c8a84975f1e3d45ccfc526d7751dcf98ff8233604051610533929190610eb9565b60405180910390a15050565b6001602052816000526040600020818154811061055b57600080fd5b90600052602060002001600091509150505481565b6060600160003373ffffffffffffffffffffffffffffffffffffffff1673ffffffffffffffffffffffffffffffffffffffff1681526020019081526020016000208054806020026020016040519081016040528092919081815260200182805480156105fb57602002820191906000526020600020905b8154815260200190600101908083116105e7575b5050505050905090565b6060600280548060200260200160405190810160405280929190818152602001828054801561065357602002820191906000526020600020905b81548152602001906001019080831161063f575b5050505050905090565b60006020528060005260406000206000915090508060000154908060010154908060020154908060030154905084565b60008060008060008060008781526020019081526020016000206000015414156106ec576040517f08c379a00000000000000000000000000000000000000000000000000000000081526004016106e390610e3e565b60405180910390fd5b6000806000878152602001908152602001600020604051806080016040529081600082015481526020016001820154815260200160028201548152602001600382015481525050905080600001518160200151826040015183606001519450945094509450509193509193565b6002818154811061076957600080fd5b906000526020600020016000915090505481565b60035481565b60008060008381526020019081526020016000206000015414156107dc576040517f08c379a00000000000000000000000000000000000000000000000000000000081526004016107d390610e3e565b60405180910390fd5b60036000808381526020019081526020016000206003015414610834576040517f08c379a000000000000000000000000000000000000000000000000000000000815260040161082b90610e7e565b60405180910390fd5b6001600080838152602001908152602001600020600301819055507f1a58b4c176a67828ebe2456bc637af85e69b115be11597e049b0669d13bea999816001604051610881929190610ee2565b60405180910390a150565b600080600085815260200190815260200160002060000154146108e4576040517f08c379a00000000000000000000000000000000000000000000000000000000081526004016108db90610e1e565b60405180910390fd5b600360008154809291906108f790611048565b9190505550604051806080016040528084815260200183815260200182815260200160008152506000808581526020019081526020016000206000820151816000015560208201518160010155604082015181600201556060820151816003015590505060028390806001815401808255809150506001900390600052602060002001600090919091909150557f8cc8407e8e312793609edf72bf9634abea0b768b26e1dfbbd3a16e546ab8dc778383836040516109b793929190610f34565b60405180910390a1505050565b6000813590506109d3816110c0565b92915050565b6000813590506109e8816110d7565b92915050565b60008060408385031215610a0157600080fd5b6000610a0f858286016109c4565b9250506020610a20858286016109d9565b9150509250929050565b600060208284031215610a3c57600080fd5b6000610a4a848285016109d9565b91505092915050565b60008060408385031215610a6657600080fd5b6000610a74858286016109d9565b9250506020610a85858286016109d9565b9150509250929050565b600080600060608486031215610aa457600080fd5b6000610ab2868287016109d9565b9350506020610ac3868287016109d9565b9250506040610ad4868287016109d9565b9150509250925092565b6000610aea8383610d7e565b60208301905092915050565b610aff81610ffa565b82525050565b6000610b1082610fc0565b610b1a8185610fd8565b9350610b2583610fb0565b8060005b83811015610b56578151610b3d8882610ade565b9750610b4883610fcb565b925050600181019050610b29565b5085935050505092915050565b610b6c81611036565b82525050565b6000610b7f600d83610fe9565b91507f496e76616c6964207374616765000000000000000000000000000000000000006000830152602082019050919050565b6000610bbf601683610fe9565b91507f50726f6475637420646f6573206e6f74206578697374000000000000000000006000830152602082019050919050565b6000610bff601483610fe9565b91507f496e636f72726563742070726963652073656e740000000000000000000000006000830152602082019050919050565b6000610c3f601683610fe9565b91507f50726f6475637420616c726561647920657869737473000000000000000000006000830152602082019050919050565b6000610c7f601183610fe9565b91507f50726f64756374206e6f7420666f756e640000000000000000000000000000006000830152602082019050919050565b6000610cbf604383610fe9565b91507f50726f647563742068617320616c7265616479206265656e207075726368617360008301527f6564206f72206973206e6f7420617661696c61626c6520666f7220707572636860208301527f61736500000000000000000000000000000000000000000000000000000000006040830152606082019050919050565b6000610d4b601f83610fe9565b91507f50726f64756374206d75737420626520707572636861736564206669727374006000830152602082019050919050565b610d878161102c565b82525050565b610d968161102c565b82525050565b60006020820190508181036000830152610db68184610b05565b905092915050565b60006020820190508181036000830152610dd781610b72565b9050919050565b60006020820190508181036000830152610df781610bb2565b9050919050565b60006020820190508181036000830152610e1781610bf2565b9050919050565b60006020820190508181036000830152610e3781610c32565b9050919050565b60006020820190508181036000830152610e5781610c72565b9050919050565b60006020820190508181036000830152610e7781610cb2565b9050919050565b60006020820190508181036000830152610e9781610d3e565b9050919050565b6000602082019050610eb36000830184610d8d565b92915050565b6000604082019050610ece6000830185610d8d565b610edb6020830184610af6565b9392505050565b6000604082019050610ef76000830185610d8d565b610f046020830184610b63565b9392505050565b6000604082019050610f206000830185610d8d565b610f2d6020830184610d8d565b9392505050565b6000606082019050610f496000830186610d8d565b610f566020830185610d8d565b610f636040830184610d8d565b949350505050565b6000608082019050610f806000830187610d8d565b610f8d6020830186610d8d565b610f9a6040830185610d8d565b610fa76060830184610d8d565b95945050505050565b6000819050602082019050919050565b600081519050919050565b6000602082019050919050565b600082825260208201905092915050565b600082825260208201905092915050565b60006110058261100c565b9050919050565b600073ffffffffffffffffffffffffffffffffffffffff82169050919050565b6000819050919050565b60006110418261102c565b9050919050565b60006110538261102c565b91507fffffffffffffffffffffffffffffffffffffffffffffffffffffffffffffffff82141561108657611085611091565b5b600182019050919050565b7f4e487b7100000000000000000000000000000000000000000000000000000000600052601160045260246000fd5b6110c981610ffa565b81146110d457600080fd5b50565b6110e08161102c565b81146110eb57600080fd5b5056fea264697066735822122097bc2ff5dbb2032f4ff271f77a8d3c365b5447098aed8d84f10226d83ac4b98264736f6c63430008000033",
  "immutableReferences": {},
  "source": "// SPDX-License-Identifier: MIT\r\npragma solidity ^0.8.0;\r\n\r\ncontract SupplyChain {\r\n    struct Product {\r\n        uint id;\r\n        uint weight;\r\n        uint price;\r\n        uint stage;\r\n    }\r\n\r\n    mapping(uint => Product) public products; // Stores product details\r\n    mapping(address => uint[]) public purchasedProducts; // Tracks purchased products by each address\r\n    uint[] public productIds; // Array to store product IDs for easy retrieval\r\n    uint public productCount = 0;\r\n\r\n    event ProductCreated(uint id, uint weight, uint price);\r\n    event ProductUpdated(uint id, uint stage);\r\n    event ProductPurchased(uint id, address buyer); // Event for product purchase\r\n\r\n    // Function to create a new product\r\n    function createProduct(uint _id, uint _weight, uint _price) public {\r\n        require(products[_id].id == 0, \"Product already exists\");\r\n\r\n        productCount++;\r\n        products[_id] = Product(_id, _weight, _price, 0); // Default stage is 0 (manufactured)\r\n        productIds.push(_id); // Add the ID to the array\r\n        emit ProductCreated(_id, _weight, _price);\r\n    }\r\n\r\n    // Function to update the product stage (e.g., from manufactured to shipped)\r\n    function updateProductStage(uint _id, uint _stage) public {\r\n        require(products[_id].id != 0, \"Product not found\");\r\n        require(_stage <= 5, \"Invalid stage\");\r\n        products[_id].stage = _stage;\r\n        emit ProductUpdated(_id, _stage);\r\n    }\r\n\r\n    // Function to purchase a product\r\n    function purchaseProduct(uint _id) public payable {\r\n        Product storage product = products[_id];\r\n\r\n        // Check if the product exists and is available for purchase (stage must be less than 3)\r\n        require(product.id != 0, \"Product does not exist\");\r\n        require(product.stage < 3, \"Product has already been purchased or is not available for purchase\");\r\n        require(msg.value == product.price, \"Incorrect price sent\");\r\n\r\n        // Mark the product as purchased (stage = 3)\r\n        product.stage = 3;\r\n\r\n        // Store the product in the purchasedProducts mapping for the sender\r\n        purchasedProducts[msg.sender].push(_id);\r\n\r\n        // Emit an event to signal the purchase\r\n        emit ProductPurchased(_id, msg.sender);\r\n    }\r\n\r\n    // Function to get all product IDs purchased by the sender\r\n    function getPurchasedProductIds() public view returns (uint[] memory) {\r\n        return purchasedProducts[msg.sender];\r\n    }\r\n\r\n    // Function to get all product IDs (for displaying all products)\r\n    function getAllProductIds() public view returns (uint[] memory) {\r\n        return productIds;\r\n    }\r\n\r\n    // Function to get product details\r\n    function getProduct(uint _id) public view returns (uint, uint, uint, uint) {\r\n        require(products[_id].id != 0, \"Product not found\");\r\n        Product memory p = products[_id];\r\n        return (p.id, p.weight, p.price, p.stage);\r\n    }\r\n    // Function to accept shipment (moves product to \"Shipped\" stage)\r\n    function acceptShipment(uint _id) public {\r\n        require(products[_id].id != 0, \"Product not found\");\r\n        require(products[_id].stage == 3, \"Product must be purchased first\");\r\n\r\n        products[_id].stage = 1; // Update to \"Shipped\"\r\n        emit ProductUpdated(_id, 1);\r\n    }\r\n\r\n}",
  "sourcePath": "C:\\Users\\ragha\\OneDrive\\Desktop\\capstone\\contracts\\SupplyChain.sol",
  "compiler": {
    "name": "solc",
    "version": "0.8.0+commit.c7dfd78e.Emscripten.clang"
  },
  "schemaVersion": "3.4.16",
  "updatedAt": "2025-04-21T19:23:40.811Z",
  "networkType": "ethereum",
  "devdoc": {
    "kind": "dev",
    "methods": {},
    "version": 1
  },
  "userdoc": {
    "kind": "user",
    "methods": {},
    "version": 1
  }
}