{
  "contractName": "SupplyChain",
  "abi": [
    {
      "anonymous": false,
      "inputs": [
        {
          "indexed": false,
          "internalType": "uint256",
          "name": "id",
          "type": "uint256"
        },
        {
          "indexed": false,
          "internalType": "string",
          "name": "name",
          "type": "string"
        },
        {
          "indexed": false,
          "internalType": "string",
          "name": "description",
          "type": "string"
        }
      ],
      "name": "ProductCreated",
      "type": "event"
    },
    {
      "anonymous": false,
      "inputs": [
        {
          "indexed": false,
          "internalType": "uint256",
          "name": "id",
          "type": "uint256"
        },
        {
          "indexed": false,
          "internalType": "uint256",
          "name": "stage",
          "type": "uint256"
        }
      ],
      "name": "ProductUpdated",
      "type": "event"
    },
    {
      "inputs": [],
      "name": "productCount",
      "outputs": [
        {
          "internalType": "uint256",
          "name": "",
          "type": "uint256"
        }
      ],
      "stateMutability": "view",
      "type": "function",
      "constant": true
    },
    {
      "inputs": [
        {
          "internalType": "uint256",
          "name": "",
          "type": "uint256"
        }
      ],
      "name": "products",
      "outputs": [
        {
          "internalType": "uint256",
          "name": "id",
          "type": "uint256"
        },
        {
          "internalType": "string",
          "name": "name",
          "type": "string"
        },
        {
          "internalType": "string",
          "name": "description",
          "type": "string"
        },
        {
          "internalType": "uint256",
          "name": "stage",
          "type": "uint256"
        }
      ],
      "stateMutability": "view",
      "type": "function",
      "constant": true
    },
    {
      "inputs": [
        {
          "internalType": "string",
          "name": "_name",
          "type": "string"
        },
        {
          "internalType": "string",
          "name": "_description",
          "type": "string"
        }
      ],
      "name": "createProduct",
      "outputs": [],
      "stateMutability": "nonpayable",
      "type": "function"
    },
    {
      "inputs": [
        {
          "internalType": "uint256",
          "name": "_id",
          "type": "uint256"
        },
        {
          "internalType": "uint256",
          "name": "_stage",
          "type": "uint256"
        }
      ],
      "name": "updateProductStage",
      "outputs": [],
      "stateMutability": "nonpayable",
      "type": "function"
    },
    {
      "inputs": [
        {
          "internalType": "uint256",
          "name": "_id",
          "type": "uint256"
        }
      ],
      "name": "getProduct",
      "outputs": [
        {
          "internalType": "uint256",
          "name": "",
          "type": "uint256"
        },
        {
          "internalType": "string",
          "name": "",
          "type": "string"
        },
        {
          "internalType": "string",
          "name": "",
          "type": "string"
        },
        {
          "internalType": "uint256",
          "name": "",
          "type": "uint256"
        }
      ],
      "stateMutability": "view",
      "type": "function",
      "constant": true
    }
  ],
  "bytecode": "0x6080604052600060015534801561001557600080fd5b50610c04806100256000396000f3fe608060405234801561001057600080fd5b50600436106100575760003560e01c80632e6637171461005c5780637acc0b201461007857806387592bce146100ab578063b9db15b4146100c7578063e0f6ef87146100fa575b600080fd5b610076600480360381019061007191906107b5565b610118565b005b610092600480360381019061008d919061078c565b610204565b6040516100a29493929190610959565b60405180910390f35b6100c560048036038101906100c09190610720565b610344565b005b6100e160048036038101906100dc919061078c565b610426565b6040516100f19493929190610959565b60405180910390f35b6101026105fa565b60405161010f91906108f9565b60405180910390f35b60008211801561012a57506001548211155b610169576040517f08c379a0000000000000000000000000000000000000000000000000000000008152600401610160906108d9565b60405180910390fd5b60058111156101ad576040517f08c379a00000000000000000000000000000000000000000000000000000000081526004016101a4906108b9565b60405180910390fd5b80600080848152602001908152602001600020600301819055507f1a58b4c176a67828ebe2456bc637af85e69b115be11597e049b0669d13bea99982826040516101f89291906109ac565b60405180910390a15050565b600060205280600052604060002060009150905080600001549080600101805461022d90610a9e565b80601f016020809104026020016040519081016040528092919081815260200182805461025990610a9e565b80156102a65780601f1061027b576101008083540402835291602001916102a6565b820191906000526020600020905b81548152906001019060200180831161028957829003601f168201915b5050505050908060020180546102bb90610a9e565b80601f01602080910402602001604051908101604052809291908181526020018280546102e790610a9e565b80156103345780601f1061030957610100808354040283529160200191610334565b820191906000526020600020905b81548152906001019060200180831161031757829003601f168201915b5050505050908060030154905084565b6001600081548092919061035790610ad0565b919050555060405180608001604052806001548152602001838152602001828152602001600081525060008060015481526020019081526020016000206000820151816000015560208201518160010190805190602001906103ba929190610600565b5060408201518160020190805190602001906103d7929190610600565b50606082015181600301559050507f2bc22403ccd085646fd0acc393542b3ca6d3f180f4fde70629d5087364decbb5600154838360405161041a93929190610914565b60405180910390a15050565b60006060806000808511801561043e57506001548511155b61047d576040517f08c379a0000000000000000000000000000000000000000000000000000000008152600401610474906108d9565b60405180910390fd5b6000806000878152602001908152602001600020604051806080016040529081600082015481526020016001820180546104b690610a9e565b80601f01602080910402602001604051908101604052809291908181526020018280546104e290610a9e565b801561052f5780601f106105045761010080835404028352916020019161052f565b820191906000526020600020905b81548152906001019060200180831161051257829003601f168201915b5050505050815260200160028201805461054890610a9e565b80601f016020809104026020016040519081016040528092919081815260200182805461057490610a9e565b80156105c15780601f10610596576101008083540402835291602001916105c1565b820191906000526020600020905b8154815290600101906020018083116105a457829003601f168201915b50505050508152602001600382015481525050905080600001518160200151826040015183606001519450945094509450509193509193565b60015481565b82805461060c90610a9e565b90600052602060002090601f01602090048101928261062e5760008555610675565b82601f1061064757805160ff1916838001178555610675565b82800160010185558215610675579182015b82811115610674578251825591602001919060010190610659565b5b5090506106829190610686565b5090565b5b8082111561069f576000816000905550600101610687565b5090565b60006106b66106b184610a06565b6109d5565b9050828152602081018484840111156106ce57600080fd5b6106d9848285610a5c565b509392505050565b600082601f8301126106f257600080fd5b81356107028482602086016106a3565b91505092915050565b60008135905061071a81610bb7565b92915050565b6000806040838503121561073357600080fd5b600083013567ffffffffffffffff81111561074d57600080fd5b610759858286016106e1565b925050602083013567ffffffffffffffff81111561077657600080fd5b610782858286016106e1565b9150509250929050565b60006020828403121561079e57600080fd5b60006107ac8482850161070b565b91505092915050565b600080604083850312156107c857600080fd5b60006107d68582860161070b565b92505060206107e78582860161070b565b9150509250929050565b60006107fc82610a36565b6108068185610a41565b9350610816818560208601610a6b565b61081f81610ba6565b840191505092915050565b6000610837600d83610a41565b91507f496e76616c6964207374616765000000000000000000000000000000000000006000830152602082019050919050565b6000610877601183610a41565b91507f50726f64756374206e6f7420666f756e640000000000000000000000000000006000830152602082019050919050565b6108b381610a52565b82525050565b600060208201905081810360008301526108d28161082a565b9050919050565b600060208201905081810360008301526108f28161086a565b9050919050565b600060208201905061090e60008301846108aa565b92915050565b600060608201905061092960008301866108aa565b818103602083015261093b81856107f1565b9050818103604083015261094f81846107f1565b9050949350505050565b600060808201905061096e60008301876108aa565b818103602083015261098081866107f1565b9050818103604083015261099481856107f1565b90506109a360608301846108aa565b95945050505050565b60006040820190506109c160008301856108aa565b6109ce60208301846108aa565b9392505050565b6000604051905081810181811067ffffffffffffffff821117156109fc576109fb610b77565b5b8060405250919050565b600067ffffffffffffffff821115610a2157610a20610b77565b5b601f19601f8301169050602081019050919050565b600081519050919050565b600082825260208201905092915050565b6000819050919050565b82818337600083830152505050565b60005b83811015610a89578082015181840152602081019050610a6e565b83811115610a98576000848401525b50505050565b60006002820490506001821680610ab657607f821691505b60208210811415610aca57610ac9610b48565b5b50919050565b6000610adb82610a52565b91507fffffffffffffffffffffffffffffffffffffffffffffffffffffffffffffffff821415610b0e57610b0d610b19565b5b600182019050919050565b7f4e487b7100000000000000000000000000000000000000000000000000000000600052601160045260246000fd5b7f4e487b7100000000000000000000000000000000000000000000000000000000600052602260045260246000fd5b7f4e487b7100000000000000000000000000000000000000000000000000000000600052604160045260246000fd5b6000601f19601f8301169050919050565b610bc081610a52565b8114610bcb57600080fd5b5056fea2646970667358221220dd53cd9840b75dba621e3cdc90f93ede8fcaaeb184fd2d00debadb70869cf9f364736f6c63430008000033",
  "immutableReferences": {},
  "source": "// SPDX-License-Identifier: MIT\r\npragma solidity ^0.8.0;\r\n\r\ncontract SupplyChain {\r\n    struct Product {\r\n        uint id;\r\n        string name;\r\n        string description;\r\n        uint stage;\r\n    }\r\n\r\n    mapping(uint => Product) public products;\r\n    uint public productCount = 0;\r\n\r\n    event ProductCreated(uint id, string name, string description);\r\n    event ProductUpdated(uint id, uint stage);\r\n\r\n    function createProduct(string memory _name, string memory _description) public {\r\n        productCount++;\r\n        products[productCount] = Product(productCount, _name, _description, 0);\r\n        emit ProductCreated(productCount, _name, _description);\r\n    }\r\n\r\n    function updateProductStage(uint _id, uint _stage) public {\r\n        require(_id > 0 && _id <= productCount, \"Product not found\");\r\n        require(_stage <= 5, \"Invalid stage\");\r\n        products[_id].stage = _stage;\r\n        emit ProductUpdated(_id, _stage);\r\n    }\r\n\r\n    function getProduct(uint _id) public view returns (uint, string memory, string memory, uint) {\r\n        require(_id > 0 && _id <= productCount, \"Product not found\");\r\n        Product memory p = products[_id];\r\n        return (p.id, p.name, p.description, p.stage);\r\n    }\r\n}\r\n",
  "sourcePath": "C:\\Users\\ragha\\OneDrive\\Desktop\\capstone\\contracts\\SupplyChain.sol",
  "compiler": {
    "name": "solc",
    "version": "0.8.0+commit.c7dfd78e.Emscripten.clang"
  },
  "schemaVersion": "3.4.16",
  "updatedAt": "2025-04-16T06:29:59.108Z",
  "networkType": "ethereum",
  "devdoc": {
    "kind": "dev",
    "methods": {},
    "version": 1
  },
  "userdoc": {
    "kind": "user",
    "methods": {},
    "version": 1
  }
}