{
  "contractName": "SupplyChain",
  "abi": [
    {
      "anonymous": false,
      "inputs": [
        {
          "indexed": false,
          "internalType": "uint256",
          "name": "id",
          "type": "uint256"
        },
        {
          "indexed": false,
          "internalType": "uint256",
          "name": "weight",
          "type": "uint256"
        },
        {
          "indexed": false,
          "internalType": "uint256",
          "name": "price",
          "type": "uint256"
        }
      ],
      "name": "ProductCreated",
      "type": "event"
    },
    {
      "anonymous": false,
      "inputs": [
        {
          "indexed": false,
          "internalType": "uint256",
          "name": "id",
          "type": "uint256"
        },
        {
          "indexed": false,
          "internalType": "uint256",
          "name": "stage",
          "type": "uint256"
        }
      ],
      "name": "ProductUpdated",
      "type": "event"
    },
    {
      "inputs": [],
      "name": "productCount",
      "outputs": [
        {
          "internalType": "uint256",
          "name": "",
          "type": "uint256"
        }
      ],
      "stateMutability": "view",
      "type": "function",
      "constant": true
    },
    {
      "inputs": [
        {
          "internalType": "uint256",
          "name": "",
          "type": "uint256"
        }
      ],
      "name": "products",
      "outputs": [
        {
          "internalType": "uint256",
          "name": "id",
          "type": "uint256"
        },
        {
          "internalType": "uint256",
          "name": "weight",
          "type": "uint256"
        },
        {
          "internalType": "uint256",
          "name": "price",
          "type": "uint256"
        },
        {
          "internalType": "uint256",
          "name": "stage",
          "type": "uint256"
        }
      ],
      "stateMutability": "view",
      "type": "function",
      "constant": true
    },
    {
      "inputs": [
        {
          "internalType": "uint256",
          "name": "_id",
          "type": "uint256"
        },
        {
          "internalType": "uint256",
          "name": "_weight",
          "type": "uint256"
        },
        {
          "internalType": "uint256",
          "name": "_price",
          "type": "uint256"
        }
      ],
      "name": "createProduct",
      "outputs": [],
      "stateMutability": "nonpayable",
      "type": "function"
    },
    {
      "inputs": [
        {
          "internalType": "uint256",
          "name": "_id",
          "type": "uint256"
        },
        {
          "internalType": "uint256",
          "name": "_stage",
          "type": "uint256"
        }
      ],
      "name": "updateProductStage",
      "outputs": [],
      "stateMutability": "nonpayable",
      "type": "function"
    },
    {
      "inputs": [
        {
          "internalType": "uint256",
          "name": "_id",
          "type": "uint256"
        }
      ],
      "name": "getProduct",
      "outputs": [
        {
          "internalType": "uint256",
          "name": "",
          "type": "uint256"
        },
        {
          "internalType": "uint256",
          "name": "",
          "type": "uint256"
        },
        {
          "internalType": "uint256",
          "name": "",
          "type": "uint256"
        },
        {
          "internalType": "uint256",
          "name": "",
          "type": "uint256"
        }
      ],
      "stateMutability": "view",
      "type": "function",
      "constant": true
    }
  ],
  "bytecode": "0x6080604052600060015534801561001557600080fd5b506107b5806100256000396000f3fe608060405234801561001057600080fd5b50600436106100575760003560e01c80632e6637171461005c5780637acc0b2014610078578063b9db15b4146100ab578063e0f6ef87146100de578063fc144806146100fc575b600080fd5b6100766004803603810190610071919061045b565b610118565b005b610092600480360381019061008d9190610432565b61020c565b6040516100a29493929190610690565b60405180910390f35b6100c560048036038101906100c09190610432565b61023c565b6040516100d59493929190610690565b60405180910390f35b6100e6610308565b6040516100f39190610615565b60405180910390f35b61011660048036038101906101119190610497565b61030e565b005b6000806000848152602001908152602001600020600001541415610171576040517f08c379a0000000000000000000000000000000000000000000000000000000008152600401610168906105f5565b60405180910390fd5b60058111156101b5576040517f08c379a00000000000000000000000000000000000000000000000000000000081526004016101ac906105b5565b60405180910390fd5b80600080848152602001908152602001600020600301819055507f1a58b4c176a67828ebe2456bc637af85e69b115be11597e049b0669d13bea9998282604051610200929190610630565b60405180910390a15050565b60006020528060005260406000206000915090508060000154908060010154908060020154908060030154905084565b600080600080600080600087815260200190815260200160002060000154141561029b576040517f08c379a0000000000000000000000000000000000000000000000000000000008152600401610292906105f5565b60405180910390fd5b6000806000878152602001908152602001600020604051806080016040529081600082015481526020016001820154815260200160028201548152602001600382015481525050905080600001518160200151826040015183606001519450945094509450509193509193565b60015481565b60008060008581526020019081526020016000206000015414610366576040517f08c379a000000000000000000000000000000000000000000000000000000000815260040161035d906105d5565b60405180910390fd5b60016000815480929190610379906106f0565b919050555060405180608001604052808481526020018381526020018281526020016000815250600080858152602001908152602001600020600082015181600001556020820151816001015560408201518160020155606082015181600301559050507f8cc8407e8e312793609edf72bf9634abea0b768b26e1dfbbd3a16e546ab8dc7783838360405161041093929190610659565b60405180910390a1505050565b60008135905061042c81610768565b92915050565b60006020828403121561044457600080fd5b60006104528482850161041d565b91505092915050565b6000806040838503121561046e57600080fd5b600061047c8582860161041d565b925050602061048d8582860161041d565b9150509250929050565b6000806000606084860312156104ac57600080fd5b60006104ba8682870161041d565b93505060206104cb8682870161041d565b92505060406104dc8682870161041d565b9150509250925092565b60006104f3600d836106d5565b91507f496e76616c6964207374616765000000000000000000000000000000000000006000830152602082019050919050565b60006105336016836106d5565b91507f50726f6475637420616c726561647920657869737473000000000000000000006000830152602082019050919050565b60006105736011836106d5565b91507f50726f64756374206e6f7420666f756e640000000000000000000000000000006000830152602082019050919050565b6105af816106e6565b82525050565b600060208201905081810360008301526105ce816104e6565b9050919050565b600060208201905081810360008301526105ee81610526565b9050919050565b6000602082019050818103600083015261060e81610566565b9050919050565b600060208201905061062a60008301846105a6565b92915050565b600060408201905061064560008301856105a6565b61065260208301846105a6565b9392505050565b600060608201905061066e60008301866105a6565b61067b60208301856105a6565b61068860408301846105a6565b949350505050565b60006080820190506106a560008301876105a6565b6106b260208301866105a6565b6106bf60408301856105a6565b6106cc60608301846105a6565b95945050505050565b600082825260208201905092915050565b6000819050919050565b60006106fb826106e6565b91507fffffffffffffffffffffffffffffffffffffffffffffffffffffffffffffffff82141561072e5761072d610739565b5b600182019050919050565b7f4e487b7100000000000000000000000000000000000000000000000000000000600052601160045260246000fd5b610771816106e6565b811461077c57600080fd5b5056fea2646970667358221220622127b575eb831168b7f0c231ef67c38610bea8f6ce8aeecd2f05f9d40f49f164736f6c63430008000033",
  "immutableReferences": {},
  "source": "// SPDX-License-Identifier: MIT\r\npragma solidity ^0.8.0;\r\n\r\ncontract SupplyChain {\r\n    struct Product {\r\n        uint id;\r\n        uint weight;\r\n        uint price;\r\n        uint stage;\r\n    }\r\n\r\n    mapping(uint => Product) public products;\r\n    uint public productCount = 0;\r\n\r\n    event ProductCreated(uint id, uint weight, uint price);\r\n    event ProductUpdated(uint id, uint stage);\r\n\r\n    function createProduct(uint _id, uint _weight, uint _price) public {\r\n        require(products[_id].id == 0, \"Product already exists\");\r\n\r\n        productCount++;\r\n        products[_id] = Product(_id, _weight, _price, 0);\r\n        emit ProductCreated(_id, _weight, _price);\r\n    }\r\n\r\n    function updateProductStage(uint _id, uint _stage) public {\r\n        require(products[_id].id != 0, \"Product not found\");\r\n        require(_stage <= 5, \"Invalid stage\");\r\n        products[_id].stage = _stage;\r\n        emit ProductUpdated(_id, _stage);\r\n    }\r\n\r\n    function getProduct(uint _id) public view returns (uint, uint, uint, uint) {\r\n        require(products[_id].id != 0, \"Product not found\");\r\n        Product memory p = products[_id];\r\n        return (p.id, p.weight, p.price, p.stage);\r\n    }\r\n}\r\n",
  "sourcePath": "C:\\Users\\ragha\\OneDrive\\Desktop\\capstone\\contracts\\SupplyChain.sol",
  "compiler": {
    "name": "solc",
    "version": "0.8.0+commit.c7dfd78e.Emscripten.clang"
  },
  "schemaVersion": "3.4.16",
  "updatedAt": "2025-04-17T03:42:16.406Z",
  "networkType": "ethereum",
  "devdoc": {
    "kind": "dev",
    "methods": {},
    "version": 1
  },
  "userdoc": {
    "kind": "user",
    "methods": {},
    "version": 1
  }
}