{
  "contractName": "SupplyChain",
  "abi": [
    {
      "anonymous": false,
      "inputs": [
        {
          "indexed": false,
          "internalType": "uint256",
          "name": "id",
          "type": "uint256"
        },
        {
          "indexed": false,
          "internalType": "uint256",
          "name": "weight",
          "type": "uint256"
        },
        {
          "indexed": false,
          "internalType": "uint256",
          "name": "price",
          "type": "uint256"
        }
      ],
      "name": "ProductCreated",
      "type": "event"
    },
    {
      "anonymous": false,
      "inputs": [
        {
          "indexed": false,
          "internalType": "uint256",
          "name": "id",
          "type": "uint256"
        },
        {
          "indexed": false,
          "internalType": "address",
          "name": "buyer",
          "type": "address"
        }
      ],
      "name": "ProductPurchased",
      "type": "event"
    },
    {
      "anonymous": false,
      "inputs": [
        {
          "indexed": false,
          "internalType": "uint256",
          "name": "id",
          "type": "uint256"
        },
        {
          "indexed": false,
          "internalType": "uint256",
          "name": "stage",
          "type": "uint256"
        }
      ],
      "name": "ProductUpdated",
      "type": "event"
    },
    {
      "inputs": [],
      "name": "productCount",
      "outputs": [
        {
          "internalType": "uint256",
          "name": "",
          "type": "uint256"
        }
      ],
      "stateMutability": "view",
      "type": "function",
      "constant": true
    },
    {
      "inputs": [
        {
          "internalType": "uint256",
          "name": "",
          "type": "uint256"
        }
      ],
      "name": "productIds",
      "outputs": [
        {
          "internalType": "uint256",
          "name": "",
          "type": "uint256"
        }
      ],
      "stateMutability": "view",
      "type": "function",
      "constant": true
    },
    {
      "inputs": [
        {
          "internalType": "uint256",
          "name": "",
          "type": "uint256"
        }
      ],
      "name": "products",
      "outputs": [
        {
          "internalType": "uint256",
          "name": "id",
          "type": "uint256"
        },
        {
          "internalType": "uint256",
          "name": "weight",
          "type": "uint256"
        },
        {
          "internalType": "uint256",
          "name": "price",
          "type": "uint256"
        },
        {
          "internalType": "uint256",
          "name": "stage",
          "type": "uint256"
        }
      ],
      "stateMutability": "view",
      "type": "function",
      "constant": true
    },
    {
      "inputs": [
        {
          "internalType": "address",
          "name": "",
          "type": "address"
        },
        {
          "internalType": "uint256",
          "name": "",
          "type": "uint256"
        }
      ],
      "name": "purchasedProducts",
      "outputs": [
        {
          "internalType": "uint256",
          "name": "",
          "type": "uint256"
        }
      ],
      "stateMutability": "view",
      "type": "function",
      "constant": true
    },
    {
      "inputs": [
        {
          "internalType": "uint256",
          "name": "_id",
          "type": "uint256"
        },
        {
          "internalType": "uint256",
          "name": "_weight",
          "type": "uint256"
        },
        {
          "internalType": "uint256",
          "name": "_price",
          "type": "uint256"
        }
      ],
      "name": "createProduct",
      "outputs": [],
      "stateMutability": "nonpayable",
      "type": "function"
    },
    {
      "inputs": [
        {
          "internalType": "uint256",
          "name": "_id",
          "type": "uint256"
        },
        {
          "internalType": "uint256",
          "name": "_stage",
          "type": "uint256"
        }
      ],
      "name": "updateProductStage",
      "outputs": [],
      "stateMutability": "nonpayable",
      "type": "function"
    },
    {
      "inputs": [
        {
          "internalType": "uint256",
          "name": "_id",
          "type": "uint256"
        }
      ],
      "name": "getProduct",
      "outputs": [
        {
          "internalType": "uint256",
          "name": "",
          "type": "uint256"
        },
        {
          "internalType": "uint256",
          "name": "",
          "type": "uint256"
        },
        {
          "internalType": "uint256",
          "name": "",
          "type": "uint256"
        },
        {
          "internalType": "uint256",
          "name": "",
          "type": "uint256"
        }
      ],
      "stateMutability": "view",
      "type": "function",
      "constant": true
    },
    {
      "inputs": [],
      "name": "getAllProductIds",
      "outputs": [
        {
          "internalType": "uint256[]",
          "name": "",
          "type": "uint256[]"
        }
      ],
      "stateMutability": "view",
      "type": "function",
      "constant": true
    },
    {
      "inputs": [
        {
          "internalType": "uint256",
          "name": "_id",
          "type": "uint256"
        }
      ],
      "name": "purchaseProduct",
      "outputs": [],
      "stateMutability": "payable",
      "type": "function",
      "payable": true
    },
    {
      "inputs": [],
      "name": "getPurchasedProductIds",
      "outputs": [
        {
          "internalType": "uint256[]",
          "name": "",
          "type": "uint256[]"
        }
      ],
      "stateMutability": "view",
      "type": "function",
      "constant": true
    }
  ],
  "bytecode": "0x6080604052600060035534801561001557600080fd5b50610f3d806100256000396000f3fe6080604052600436106100915760003560e01c80637acc0b20116100595780637acc0b201461016e578063b9db15b4146101ae578063cb51bba9146101ee578063e0f6ef871461022b578063fc1448061461025657610091565b80632e6637171461009657806338e76a03146100bf5780635df87e03146100db57806363cdd15614610118578063663c01af14610143575b600080fd5b3480156100a257600080fd5b506100bd60048036038101906100b89190610916565b61027f565b005b6100d960048036038101906100d491906108ed565b610373565b005b3480156100e757600080fd5b5061010260048036038101906100fd91906108b1565b61050b565b60405161010f9190610cf2565b60405180910390f35b34801561012457600080fd5b5061012d61053c565b60405161013a9190610c10565b60405180910390f35b34801561014f57600080fd5b506101586105d1565b6040516101659190610c10565b60405180910390f35b34801561017a57600080fd5b50610195600480360381019061019091906108ed565b610629565b6040516101a59493929190610d96565b60405180910390f35b3480156101ba57600080fd5b506101d560048036038101906101d091906108ed565b610659565b6040516101e59493929190610d96565b60405180910390f35b3480156101fa57600080fd5b50610215600480360381019061021091906108ed565b610725565b6040516102229190610cf2565b60405180910390f35b34801561023757600080fd5b50610240610749565b60405161024d9190610cf2565b60405180910390f35b34801561026257600080fd5b5061027d60048036038101906102789190610952565b61074f565b005b60008060008481526020019081526020016000206000015414156102d8576040517f08c379a00000000000000000000000000000000000000000000000000000000081526004016102cf90610cb2565b60405180910390fd5b600381111561031c576040517f08c379a000000000000000000000000000000000000000000000000000000000815260040161031390610c32565b60405180910390fd5b80600080848152602001908152602001600020600301819055507f1a58b4c176a67828ebe2456bc637af85e69b115be11597e049b0669d13bea9998282604051610367929190610d36565b60405180910390a15050565b600080600083815260200190815260200160002090506000816000015414156103d1576040517f08c379a00000000000000000000000000000000000000000000000000000000081526004016103c890610c52565b60405180910390fd5b6003816003015410610418576040517f08c379a000000000000000000000000000000000000000000000000000000000815260040161040f90610cd2565b60405180910390fd5b8060020154341461045e576040517f08c379a000000000000000000000000000000000000000000000000000000000815260040161045590610c72565b60405180910390fd5b60038160030181905550600160003373ffffffffffffffffffffffffffffffffffffffff1673ffffffffffffffffffffffffffffffffffffffff1681526020019081526020016000208290806001815401808255809150506001900390600052602060002001600090919091909150557f9ad4ecfaf27ea0cbeebee0ed92fe15c8a84975f1e3d45ccfc526d7751dcf98ff82336040516104ff929190610d0d565b60405180910390a15050565b6001602052816000526040600020818154811061052757600080fd5b90600052602060002001600091509150505481565b6060600160003373ffffffffffffffffffffffffffffffffffffffff1673ffffffffffffffffffffffffffffffffffffffff1681526020019081526020016000208054806020026020016040519081016040528092919081815260200182805480156105c757602002820191906000526020600020905b8154815260200190600101908083116105b3575b5050505050905090565b6060600280548060200260200160405190810160405280929190818152602001828054801561061f57602002820191906000526020600020905b81548152602001906001019080831161060b575b5050505050905090565b60006020528060005260406000206000915090508060000154908060010154908060020154908060030154905084565b60008060008060008060008781526020019081526020016000206000015414156106b8576040517f08c379a00000000000000000000000000000000000000000000000000000000081526004016106af90610cb2565b60405180910390fd5b6000806000878152602001908152602001600020604051806080016040529081600082015481526020016001820154815260200160028201548152602001600382015481525050905080600001518160200151826040015183606001519450945094509450509193509193565b6002818154811061073557600080fd5b906000526020600020016000915090505481565b60035481565b600080600085815260200190815260200160002060000154146107a7576040517f08c379a000000000000000000000000000000000000000000000000000000000815260040161079e90610c92565b60405180910390fd5b600360008154809291906107ba90610e61565b9190505550604051806080016040528084815260200183815260200182815260200160008152506000808581526020019081526020016000206000820151816000015560208201518160010155604082015181600201556060820151816003015590505060028390806001815401808255809150506001900390600052602060002001600090919091909150557f8cc8407e8e312793609edf72bf9634abea0b768b26e1dfbbd3a16e546ab8dc7783838360405161087a93929190610d5f565b60405180910390a1505050565b60008135905061089681610ed9565b92915050565b6000813590506108ab81610ef0565b92915050565b600080604083850312156108c457600080fd5b60006108d285828601610887565b92505060206108e38582860161089c565b9150509250929050565b6000602082840312156108ff57600080fd5b600061090d8482850161089c565b91505092915050565b6000806040838503121561092957600080fd5b60006109378582860161089c565b92505060206109488582860161089c565b9150509250929050565b60008060006060848603121561096757600080fd5b60006109758682870161089c565b93505060206109868682870161089c565b92505060406109978682870161089c565b9150509250925092565b60006109ad8383610bf2565b60208301905092915050565b6109c281610e25565b82525050565b60006109d382610deb565b6109dd8185610e03565b93506109e883610ddb565b8060005b83811015610a19578151610a0088826109a1565b9750610a0b83610df6565b9250506001810190506109ec565b5085935050505092915050565b6000610a33600d83610e14565b91507f496e76616c6964207374616765000000000000000000000000000000000000006000830152602082019050919050565b6000610a73601683610e14565b91507f50726f6475637420646f6573206e6f74206578697374000000000000000000006000830152602082019050919050565b6000610ab3601483610e14565b91507f496e636f72726563742070726963652073656e740000000000000000000000006000830152602082019050919050565b6000610af3601683610e14565b91507f50726f6475637420616c726561647920657869737473000000000000000000006000830152602082019050919050565b6000610b33601183610e14565b91507f50726f64756374206e6f7420666f756e640000000000000000000000000000006000830152602082019050919050565b6000610b73604383610e14565b91507f50726f647563742068617320616c7265616479206265656e207075726368617360008301527f6564206f72206973206e6f7420617661696c61626c6520666f7220707572636860208301527f61736500000000000000000000000000000000000000000000000000000000006040830152606082019050919050565b610bfb81610e57565b82525050565b610c0a81610e57565b82525050565b60006020820190508181036000830152610c2a81846109c8565b905092915050565b60006020820190508181036000830152610c4b81610a26565b9050919050565b60006020820190508181036000830152610c6b81610a66565b9050919050565b60006020820190508181036000830152610c8b81610aa6565b9050919050565b60006020820190508181036000830152610cab81610ae6565b9050919050565b60006020820190508181036000830152610ccb81610b26565b9050919050565b60006020820190508181036000830152610ceb81610b66565b9050919050565b6000602082019050610d076000830184610c01565b92915050565b6000604082019050610d226000830185610c01565b610d2f60208301846109b9565b9392505050565b6000604082019050610d4b6000830185610c01565b610d586020830184610c01565b9392505050565b6000606082019050610d746000830186610c01565b610d816020830185610c01565b610d8e6040830184610c01565b949350505050565b6000608082019050610dab6000830187610c01565b610db86020830186610c01565b610dc56040830185610c01565b610dd26060830184610c01565b95945050505050565b6000819050602082019050919050565b600081519050919050565b6000602082019050919050565b600082825260208201905092915050565b600082825260208201905092915050565b6000610e3082610e37565b9050919050565b600073ffffffffffffffffffffffffffffffffffffffff82169050919050565b6000819050919050565b6000610e6c82610e57565b91507fffffffffffffffffffffffffffffffffffffffffffffffffffffffffffffffff821415610e9f57610e9e610eaa565b5b600182019050919050565b7f4e487b7100000000000000000000000000000000000000000000000000000000600052601160045260246000fd5b610ee281610e25565b8114610eed57600080fd5b50565b610ef981610e57565b8114610f0457600080fd5b5056fea2646970667358221220b744e046628d1d5703059d7f61a088d379d01388118e21b13675ab55293440ec64736f6c63430008000033",
  "immutableReferences": {},
  "source": "// SPDX-License-Identifier: MIT\r\npragma solidity ^0.8.0;\r\n\r\ncontract SupplyChain {\r\n    struct Product {\r\n        uint id;\r\n        uint weight;\r\n        uint price;\r\n        uint stage; // 0: Manufactured, 1: Shipped, 2: Delivered, 3: Purchased\r\n    }\r\n\r\n    mapping(uint => Product) public products;\r\n    mapping(address => uint[]) public purchasedProducts; //  Tracks purchases for each user\r\n    uint[] public productIds; //  Array to store actual product IDs\r\n    uint public productCount = 0;\r\n\r\n    event ProductCreated(uint id, uint weight, uint price);\r\n    event ProductUpdated(uint id, uint stage);\r\n    event ProductPurchased(uint id, address buyer);\r\n\r\n    // Function to create a product\r\n    function createProduct(uint _id, uint _weight, uint _price) public {\r\n        require(products[_id].id == 0, \"Product already exists\");\r\n\r\n        productCount++;\r\n        products[_id] = Product(_id, _weight, _price, 0);\r\n        productIds.push(_id); // Track the product ID\r\n        emit ProductCreated(_id, _weight, _price);\r\n    }\r\n\r\n    // Function to update product stage (Manufactured, Shipped, Delivered, etc.)\r\n    function updateProductStage(uint _id, uint _stage) public {\r\n        require(products[_id].id != 0, \"Product not found\");\r\n        require(_stage <= 3, \"Invalid stage\");\r\n        products[_id].stage = _stage;\r\n        emit ProductUpdated(_id, _stage);\r\n    }\r\n\r\n    // Function to get product details\r\n    function getProduct(uint _id) public view returns (uint, uint, uint, uint) {\r\n        require(products[_id].id != 0, \"Product not found\");\r\n        Product memory p = products[_id];\r\n        return (p.id, p.weight, p.price, p.stage);\r\n    }\r\n\r\n    // Function to get all product IDs\r\n    function getAllProductIds() public view returns (uint[] memory) {\r\n        return productIds;\r\n    }\r\n\r\n    //  Function to purchase a product\r\n    function purchaseProduct(uint _id) public payable {\r\n        Product storage product = products[_id];\r\n\r\n        // Check if the product exists and is available for purchase (stage must be less than 3)\r\n        require(product.id != 0, \"Product does not exist\");\r\n        require(product.stage < 3, \"Product has already been purchased or is not available for purchase\");\r\n        require(msg.value == product.price, \"Incorrect price sent\");\r\n\r\n        // Mark the product as purchased (stage = 3)\r\n        product.stage = 3;\r\n\r\n        // Store the product in the purchasedProducts mapping for the sender\r\n        purchasedProducts[msg.sender].push(_id);\r\n\r\n        // Emit an event to signal the purchase\r\n        emit ProductPurchased(_id, msg.sender);\r\n    }\r\n\r\n    // Function to get all product IDs purchased by the sender\r\n    function getPurchasedProductIds() public view returns (uint[] memory) {\r\n        return purchasedProducts[msg.sender];\r\n    }\r\n}\r\n",
  "sourcePath": "C:\\Users\\ragha\\OneDrive\\Desktop\\capstone\\contracts\\SupplyChain.sol",
  "compiler": {
    "name": "solc",
    "version": "0.8.0+commit.c7dfd78e.Emscripten.clang"
  },
  "schemaVersion": "3.4.16",
  "updatedAt": "2025-04-18T06:44:15.784Z",
  "networkType": "ethereum",
  "devdoc": {
    "kind": "dev",
    "methods": {},
    "version": 1
  },
  "userdoc": {
    "kind": "user",
    "methods": {},
    "version": 1
  }
}