{
  "contractName": "SupplyChain",
  "abi": [
    {
      "anonymous": false,
      "inputs": [
        {
          "indexed": false,
          "internalType": "uint256",
          "name": "id",
          "type": "uint256"
        },
        {
          "indexed": false,
          "internalType": "uint256",
          "name": "weight",
          "type": "uint256"
        },
        {
          "indexed": false,
          "internalType": "uint256",
          "name": "price",
          "type": "uint256"
        }
      ],
      "name": "ProductCreated",
      "type": "event"
    },
    {
      "anonymous": false,
      "inputs": [
        {
          "indexed": false,
          "internalType": "uint256",
          "name": "id",
          "type": "uint256"
        },
        {
          "indexed": false,
          "internalType": "address",
          "name": "buyer",
          "type": "address"
        }
      ],
      "name": "ProductPurchased",
      "type": "event"
    },
    {
      "anonymous": false,
      "inputs": [
        {
          "indexed": false,
          "internalType": "uint256",
          "name": "id",
          "type": "uint256"
        },
        {
          "indexed": false,
          "internalType": "uint256",
          "name": "stage",
          "type": "uint256"
        }
      ],
      "name": "ProductUpdated",
      "type": "event"
    },
    {
      "inputs": [],
      "name": "productCount",
      "outputs": [
        {
          "internalType": "uint256",
          "name": "",
          "type": "uint256"
        }
      ],
      "stateMutability": "view",
      "type": "function",
      "constant": true
    },
    {
      "inputs": [
        {
          "internalType": "uint256",
          "name": "",
          "type": "uint256"
        }
      ],
      "name": "productIds",
      "outputs": [
        {
          "internalType": "uint256",
          "name": "",
          "type": "uint256"
        }
      ],
      "stateMutability": "view",
      "type": "function",
      "constant": true
    },
    {
      "inputs": [
        {
          "internalType": "uint256",
          "name": "",
          "type": "uint256"
        }
      ],
      "name": "products",
      "outputs": [
        {
          "internalType": "uint256",
          "name": "id",
          "type": "uint256"
        },
        {
          "internalType": "uint256",
          "name": "weight",
          "type": "uint256"
        },
        {
          "internalType": "uint256",
          "name": "price",
          "type": "uint256"
        },
        {
          "internalType": "uint256",
          "name": "stage",
          "type": "uint256"
        },
        {
          "internalType": "address payable",
          "name": "seller",
          "type": "address"
        },
        {
          "internalType": "address",
          "name": "buyer",
          "type": "address"
        }
      ],
      "stateMutability": "view",
      "type": "function",
      "constant": true
    },
    {
      "inputs": [
        {
          "internalType": "address",
          "name": "",
          "type": "address"
        },
        {
          "internalType": "uint256",
          "name": "",
          "type": "uint256"
        }
      ],
      "name": "purchasedProducts",
      "outputs": [
        {
          "internalType": "uint256",
          "name": "",
          "type": "uint256"
        }
      ],
      "stateMutability": "view",
      "type": "function",
      "constant": true
    },
    {
      "inputs": [
        {
          "internalType": "uint256",
          "name": "_id",
          "type": "uint256"
        },
        {
          "internalType": "uint256",
          "name": "_weight",
          "type": "uint256"
        },
        {
          "internalType": "uint256",
          "name": "_price",
          "type": "uint256"
        }
      ],
      "name": "createProduct",
      "outputs": [],
      "stateMutability": "nonpayable",
      "type": "function"
    },
    {
      "inputs": [
        {
          "internalType": "uint256",
          "name": "_id",
          "type": "uint256"
        },
        {
          "internalType": "uint256",
          "name": "_stage",
          "type": "uint256"
        }
      ],
      "name": "updateProductStage",
      "outputs": [],
      "stateMutability": "nonpayable",
      "type": "function"
    },
    {
      "inputs": [
        {
          "internalType": "uint256",
          "name": "_id",
          "type": "uint256"
        }
      ],
      "name": "purchaseProduct",
      "outputs": [],
      "stateMutability": "payable",
      "type": "function",
      "payable": true
    },
    {
      "inputs": [],
      "name": "getPurchasedProductIds",
      "outputs": [
        {
          "internalType": "uint256[]",
          "name": "",
          "type": "uint256[]"
        }
      ],
      "stateMutability": "view",
      "type": "function",
      "constant": true
    },
    {
      "inputs": [],
      "name": "getAllProductIds",
      "outputs": [
        {
          "internalType": "uint256[]",
          "name": "",
          "type": "uint256[]"
        }
      ],
      "stateMutability": "view",
      "type": "function",
      "constant": true
    },
    {
      "inputs": [
        {
          "internalType": "uint256",
          "name": "_id",
          "type": "uint256"
        }
      ],
      "name": "getProduct",
      "outputs": [
        {
          "internalType": "uint256",
          "name": "",
          "type": "uint256"
        },
        {
          "internalType": "uint256",
          "name": "",
          "type": "uint256"
        },
        {
          "internalType": "uint256",
          "name": "",
          "type": "uint256"
        },
        {
          "internalType": "uint256",
          "name": "",
          "type": "uint256"
        }
      ],
      "stateMutability": "view",
      "type": "function",
      "constant": true
    },
    {
      "inputs": [
        {
          "internalType": "uint256",
          "name": "_id",
          "type": "uint256"
        }
      ],
      "name": "acceptShipment",
      "outputs": [],
      "stateMutability": "nonpayable",
      "type": "function"
    },
    {
      "inputs": [
        {
          "internalType": "uint256",
          "name": "_id",
          "type": "uint256"
        }
      ],
      "name": "confirmDelivery",
      "outputs": [],
      "stateMutability": "nonpayable",
      "type": "function"
    }
  ],
  "bytecode": "0x6080604052600060035534801561001557600080fd5b50611815806100256000396000f3fe6080604052600436106100a75760003560e01c8063b9db15b411610064578063b9db15b4146101c6578063cb51bba914610206578063e0f6ef8714610243578063f7e194b81461026e578063fc14480614610297578063fd84cb97146102c0576100a7565b80632e663717146100ac57806338e76a03146100d55780635df87e03146100f157806363cdd1561461012e578063663c01af146101595780637acc0b2014610184575b600080fd5b3480156100b857600080fd5b506100d360048036038101906100ce9190610f0c565b6102e9565b005b6100ef60048036038101906100ea9190610ee3565b6103dd565b005b3480156100fd57600080fd5b5061011860048036038101906101139190610ea7565b61064b565b60405161012591906114e1565b60405180910390f35b34801561013a57600080fd5b5061014361067c565b604051610150919061137f565b60405180910390f35b34801561016557600080fd5b5061016e610711565b60405161017b919061137f565b60405180910390f35b34801561019057600080fd5b506101ab60048036038101906101a69190610ee3565b610769565b6040516101bd9695949392919061161c565b60405180910390f35b3480156101d257600080fd5b506101ed60048036038101906101e89190610ee3565b6107e5565b6040516101fd94939291906115d7565b60405180910390f35b34801561021257600080fd5b5061022d60048036038101906102289190610ee3565b61095d565b60405161023a91906114e1565b60405180910390f35b34801561024f57600080fd5b50610258610981565b60405161026591906114e1565b60405180910390f35b34801561027a57600080fd5b5061029560048036038101906102909190610ee3565b610987565b005b3480156102a357600080fd5b506102be60048036038101906102b99190610f48565b610a90565b005b3480156102cc57600080fd5b506102e760048036038101906102e29190610ee3565b610c8f565b005b6000806000848152602001908152602001600020600001541415610342576040517f08c379a000000000000000000000000000000000000000000000000000000000815260040161033990611441565b60405180910390fd5b6005811115610386576040517f08c379a000000000000000000000000000000000000000000000000000000000815260040161037d906113a1565b60405180910390fd5b80600080848152602001908152602001600020600301819055507f1a58b4c176a67828ebe2456bc637af85e69b115be11597e049b0669d13bea99982826040516103d1929190611577565b60405180910390a15050565b6000806000838152602001908152602001600020905060008160000154141561043b576040517f08c379a0000000000000000000000000000000000000000000000000000000008152600401610432906113c1565b60405180910390fd5b6003816003015410610482576040517f08c379a000000000000000000000000000000000000000000000000000000000815260040161047990611481565b60405180910390fd5b806002015434146104c8576040517f08c379a00000000000000000000000000000000000000000000000000000000081526004016104bf90611401565b60405180910390fd5b600073ffffffffffffffffffffffffffffffffffffffff168160050160009054906101000a900473ffffffffffffffffffffffffffffffffffffffff1673ffffffffffffffffffffffffffffffffffffffff161461055b576040517f08c379a000000000000000000000000000000000000000000000000000000000815260040161055290611461565b60405180910390fd5b60038160030181905550338160050160006101000a81548173ffffffffffffffffffffffffffffffffffffffff021916908373ffffffffffffffffffffffffffffffffffffffff160217905550600160003373ffffffffffffffffffffffffffffffffffffffff1673ffffffffffffffffffffffffffffffffffffffff1681526020019081526020016000208290806001815401808255809150506001900390600052602060002001600090919091909150557f9ad4ecfaf27ea0cbeebee0ed92fe15c8a84975f1e3d45ccfc526d7751dcf98ff823360405161063f9291906114fc565b60405180910390a15050565b6001602052816000526040600020818154811061066757600080fd5b90600052602060002001600091509150505481565b6060600160003373ffffffffffffffffffffffffffffffffffffffff1673ffffffffffffffffffffffffffffffffffffffff16815260200190815260200160002080548060200260200160405190810160405280929190818152602001828054801561070757602002820191906000526020600020905b8154815260200190600101908083116106f3575b5050505050905090565b6060600280548060200260200160405190810160405280929190818152602001828054801561075f57602002820191906000526020600020905b81548152602001906001019080831161074b575b5050505050905090565b60006020528060005260406000206000915090508060000154908060010154908060020154908060030154908060040160009054906101000a900473ffffffffffffffffffffffffffffffffffffffff16908060050160009054906101000a900473ffffffffffffffffffffffffffffffffffffffff16905086565b6000806000806000806000878152602001908152602001600020600001541415610844576040517f08c379a000000000000000000000000000000000000000000000000000000000815260040161083b90611441565b60405180910390fd5b60008060008781526020019081526020016000206040518060c0016040529081600082015481526020016001820154815260200160028201548152602001600382015481526020016004820160009054906101000a900473ffffffffffffffffffffffffffffffffffffffff1673ffffffffffffffffffffffffffffffffffffffff1673ffffffffffffffffffffffffffffffffffffffff1681526020016005820160009054906101000a900473ffffffffffffffffffffffffffffffffffffffff1673ffffffffffffffffffffffffffffffffffffffff1673ffffffffffffffffffffffffffffffffffffffff1681525050905080600001518160200151826040015183606001519450945094509450509193509193565b6002818154811061096d57600080fd5b906000526020600020016000915090505481565b60035481565b60008060008381526020019081526020016000206000015414156109e0576040517f08c379a00000000000000000000000000000000000000000000000000000000081526004016109d790611441565b60405180910390fd5b60036000808381526020019081526020016000206003015414610a38576040517f08c379a0000000000000000000000000000000000000000000000000000000008152600401610a2f906114a1565b60405180910390fd5b6001600080838152602001908152602001600020600301819055507f1a58b4c176a67828ebe2456bc637af85e69b115be11597e049b0669d13bea999816001604051610a85929190611525565b60405180910390a150565b60008060008581526020019081526020016000206000015414610ae8576040517f08c379a0000000000000000000000000000000000000000000000000000000008152600401610adf90611421565b60405180910390fd5b60036000815480929190610afb90611739565b91905055506040518060c00160405280848152602001838152602001828152602001600081526020013373ffffffffffffffffffffffffffffffffffffffff168152602001600073ffffffffffffffffffffffffffffffffffffffff168152506000808581526020019081526020016000206000820151816000015560208201518160010155604082015181600201556060820151816003015560808201518160040160006101000a81548173ffffffffffffffffffffffffffffffffffffffff021916908373ffffffffffffffffffffffffffffffffffffffff16021790555060a08201518160050160006101000a81548173ffffffffffffffffffffffffffffffffffffffff021916908373ffffffffffffffffffffffffffffffffffffffff16021790555090505060028390806001815401808255809150506001900390600052602060002001600090919091909150557f8cc8407e8e312793609edf72bf9634abea0b768b26e1dfbbd3a16e546ab8dc77838383604051610c82939291906115a0565b60405180910390a1505050565b60008060008381526020019081526020016000209050600081600001541415610ced576040517f08c379a0000000000000000000000000000000000000000000000000000000008152600401610ce490611441565b60405180910390fd5b6001816003015414610d34576040517f08c379a0000000000000000000000000000000000000000000000000000000008152600401610d2b906113e1565b60405180910390fd5b3373ffffffffffffffffffffffffffffffffffffffff168160050160009054906101000a900473ffffffffffffffffffffffffffffffffffffffff1673ffffffffffffffffffffffffffffffffffffffff1614610dc6576040517f08c379a0000000000000000000000000000000000000000000000000000000008152600401610dbd906114c1565b60405180910390fd5b600481600301819055508060040160009054906101000a900473ffffffffffffffffffffffffffffffffffffffff1673ffffffffffffffffffffffffffffffffffffffff166108fc82600201549081150290604051600060405180830381858888f19350505050158015610e3e573d6000803e3d6000fd5b507f1a58b4c176a67828ebe2456bc637af85e69b115be11597e049b0669d13bea999826004604051610e7192919061154e565b60405180910390a15050565b600081359050610e8c816117b1565b92915050565b600081359050610ea1816117c8565b92915050565b60008060408385031215610eba57600080fd5b6000610ec885828601610e7d565b9250506020610ed985828601610e92565b9150509250929050565b600060208284031215610ef557600080fd5b6000610f0384828501610e92565b91505092915050565b60008060408385031215610f1f57600080fd5b6000610f2d85828601610e92565b9250506020610f3e85828601610e92565b9150509250929050565b600080600060608486031215610f5d57600080fd5b6000610f6b86828701610e92565b9350506020610f7c86828701610e92565b9250506040610f8d86828701610e92565b9150509250925092565b6000610fa38383611361565b60208301905092915050565b610fb8816116d9565b82525050565b610fc7816116c7565b82525050565b6000610fd88261168d565b610fe281856116a5565b9350610fed8361167d565b8060005b8381101561101e5781516110058882610f97565b975061101083611698565b925050600181019050610ff1565b5085935050505092915050565b61103481611715565b82525050565b61104381611727565b82525050565b6000611056600d836116b6565b91507f496e76616c6964207374616765000000000000000000000000000000000000006000830152602082019050919050565b60006110966016836116b6565b91507f50726f6475637420646f6573206e6f74206578697374000000000000000000006000830152602082019050919050565b60006110d6602a836116b6565b91507f50726f64756374206d75737420626520696e207472616e73697420746f20626560008301527f2064656c697665726564000000000000000000000000000000000000000000006020830152604082019050919050565b600061113c6014836116b6565b91507f496e636f72726563742070726963652073656e740000000000000000000000006000830152602082019050919050565b600061117c6016836116b6565b91507f50726f6475637420616c726561647920657869737473000000000000000000006000830152602082019050919050565b60006111bc6011836116b6565b91507f50726f64756374206e6f7420666f756e640000000000000000000000000000006000830152602082019050919050565b60006111fc6011836116b6565b91507f416c7265616479207075726368617365640000000000000000000000000000006000830152602082019050919050565b600061123c6043836116b6565b91507f50726f647563742068617320616c7265616479206265656e207075726368617360008301527f6564206f72206973206e6f7420617661696c61626c6520666f7220707572636860208301527f61736500000000000000000000000000000000000000000000000000000000006040830152606082019050919050565b60006112c8601f836116b6565b91507f50726f64756374206d75737420626520707572636861736564206669727374006000830152602082019050919050565b60006113086023836116b6565b91507f4f6e6c79207468652062757965722063616e20636f6e6669726d2064656c697660008301527f65727900000000000000000000000000000000000000000000000000000000006020830152604082019050919050565b61136a8161170b565b82525050565b6113798161170b565b82525050565b600060208201905081810360008301526113998184610fcd565b905092915050565b600060208201905081810360008301526113ba81611049565b9050919050565b600060208201905081810360008301526113da81611089565b9050919050565b600060208201905081810360008301526113fa816110c9565b9050919050565b6000602082019050818103600083015261141a8161112f565b9050919050565b6000602082019050818103600083015261143a8161116f565b9050919050565b6000602082019050818103600083015261145a816111af565b9050919050565b6000602082019050818103600083015261147a816111ef565b9050919050565b6000602082019050818103600083015261149a8161122f565b9050919050565b600060208201905081810360008301526114ba816112bb565b9050919050565b600060208201905081810360008301526114da816112fb565b9050919050565b60006020820190506114f66000830184611370565b92915050565b60006040820190506115116000830185611370565b61151e6020830184610fbe565b9392505050565b600060408201905061153a6000830185611370565b611547602083018461102b565b9392505050565b60006040820190506115636000830185611370565b611570602083018461103a565b9392505050565b600060408201905061158c6000830185611370565b6115996020830184611370565b9392505050565b60006060820190506115b56000830186611370565b6115c26020830185611370565b6115cf6040830184611370565b949350505050565b60006080820190506115ec6000830187611370565b6115f96020830186611370565b6116066040830185611370565b6116136060830184611370565b95945050505050565b600060c0820190506116316000830189611370565b61163e6020830188611370565b61164b6040830187611370565b6116586060830186611370565b6116656080830185610faf565b61167260a0830184610fbe565b979650505050505050565b6000819050602082019050919050565b600081519050919050565b6000602082019050919050565b600082825260208201905092915050565b600082825260208201905092915050565b60006116d2826116eb565b9050919050565b60006116e4826116eb565b9050919050565b600073ffffffffffffffffffffffffffffffffffffffff82169050919050565b6000819050919050565b60006117208261170b565b9050919050565b60006117328261170b565b9050919050565b60006117448261170b565b91507fffffffffffffffffffffffffffffffffffffffffffffffffffffffffffffffff82141561177757611776611782565b5b600182019050919050565b7f4e487b7100000000000000000000000000000000000000000000000000000000600052601160045260246000fd5b6117ba816116c7565b81146117c557600080fd5b50565b6117d18161170b565b81146117dc57600080fd5b5056fea2646970667358221220e9baf4d8538e93f1adc61594003166d34263141e713149496db6a96f5275265364736f6c63430008000033",
  "immutableReferences": {},
  "source": "// SPDX-License-Identifier: MIT\r\npragma solidity ^0.8.0;\r\n\r\ncontract SupplyChain {\r\n    struct Product {\r\n        uint id;\r\n        uint weight;\r\n        uint price;\r\n        uint stage;\r\n        address payable seller; // seller gets paid after delivery\r\n        address buyer; // buyer confirms delivery\r\n    }\r\n\r\n    mapping(uint => Product) public products; // Stores product details\r\n    mapping(address => uint[]) public purchasedProducts; // Tracks purchased products by each address\r\n    uint[] public productIds; // Array to store product IDs for easy retrieval\r\n    uint public productCount = 0;\r\n\r\n    event ProductCreated(uint id, uint weight, uint price);\r\n    event ProductUpdated(uint id, uint stage);\r\n    event ProductPurchased(uint id, address buyer); // Event for product purchase\r\n\r\n    // Function to create a new product\r\n    function createProduct(uint _id, uint _weight, uint _price) public {\r\n        require(products[_id].id == 0, \"Product already exists\");\r\n\r\n        productCount++;\r\n        products[_id] = Product(_id, _weight, _price, 0, payable(msg.sender), address(0)); // include seller\r\n        productIds.push(_id); // Add the ID to the array\r\n        emit ProductCreated(_id, _weight, _price);\r\n    }\r\n\r\n    // Function to update the product stage (e.g., from manufactured to shipped)\r\n    function updateProductStage(uint _id, uint _stage) public {\r\n        require(products[_id].id != 0, \"Product not found\");\r\n        require(_stage <= 5, \"Invalid stage\");\r\n        products[_id].stage = _stage;\r\n        emit ProductUpdated(_id, _stage);\r\n    }\r\n\r\n    // Function to purchase a product\r\n    function purchaseProduct(uint _id) public payable {\r\n        Product storage product = products[_id];\r\n\r\n        // Check if the product exists and is available for purchase (stage must be less than 3)\r\n        require(product.id != 0, \"Product does not exist\");\r\n        require(product.stage < 3, \"Product has already been purchased or is not available for purchase\");\r\n        require(msg.value == product.price, \"Incorrect price sent\");\r\n        require(product.buyer == address(0), \"Already purchased\");\r\n\r\n\r\n        // Mark the product as purchased (stage = 3)\r\n        product.stage = 3;\r\n        product.buyer=msg.sender;\r\n\r\n        // Store the product in the purchasedProducts mapping for the sender\r\n        purchasedProducts[msg.sender].push(_id);\r\n\r\n        // Emit an event to signal the purchase\r\n        emit ProductPurchased(_id, msg.sender);\r\n    }\r\n\r\n    // Function to get all product IDs purchased by the sender\r\n    function getPurchasedProductIds() public view returns (uint[] memory) {\r\n        return purchasedProducts[msg.sender];\r\n    }\r\n\r\n    // Function to get all product IDs (for displaying all products)\r\n    function getAllProductIds() public view returns (uint[] memory) {\r\n        return productIds;\r\n    }\r\n\r\n    // Function to get product details\r\n    function getProduct(uint _id) public view returns (uint, uint, uint, uint) {\r\n        require(products[_id].id != 0, \"Product not found\");\r\n        Product memory p = products[_id];\r\n        return (p.id, p.weight, p.price, p.stage);\r\n    }\r\n    // Function to accept shipment (moves product to \"Shipped\" stage)\r\n    function acceptShipment(uint _id) public {\r\n        require(products[_id].id != 0, \"Product not found\");\r\n        require(products[_id].stage == 3, \"Product must be purchased first\");\r\n\r\n        products[_id].stage = 1; // Update to \"Shipped\"\r\n        emit ProductUpdated(_id, 1);\r\n    }\r\n\r\n    // Function to confirm delivery (moves product to \"Delivered\" stage)\r\n    function confirmDelivery(uint _id) public {\r\n        Product storage product = products[_id]; // Get the product from the mapping\r\n        require(product.id != 0, \"Product not found\");\r\n        require(product.stage == 1, \"Product must be in transit to be delivered\");\r\n        require(product.buyer == msg.sender, \"Only the buyer can confirm delivery\");\r\n\r\n        product.stage = 4; // Update to \"Delivered\"\r\n        product.seller.transfer(product.price); // Release escrow to seller\r\n\r\n        emit ProductUpdated(_id, 4);    \r\n    }\r\n\r\n}",
  "sourcePath": "C:\\Users\\ragha\\OneDrive\\Desktop\\capstone\\contracts\\SupplyChain.sol",
  "compiler": {
    "name": "solc",
    "version": "0.8.0+commit.c7dfd78e.Emscripten.clang"
  },
  "schemaVersion": "3.4.16",
  "updatedAt": "2025-04-23T09:53:23.332Z",
  "networkType": "ethereum",
  "devdoc": {
    "kind": "dev",
    "methods": {},
    "version": 1
  },
  "userdoc": {
    "kind": "user",
    "methods": {},
    "version": 1
  }
}