{
  "contractName": "SupplyChain",
  "abi": [
    {
      "anonymous": false,
      "inputs": [
        {
          "indexed": false,
          "internalType": "uint256",
          "name": "id",
          "type": "uint256"
        },
        {
          "indexed": false,
          "internalType": "uint256",
          "name": "weight",
          "type": "uint256"
        },
        {
          "indexed": false,
          "internalType": "uint256",
          "name": "price",
          "type": "uint256"
        }
      ],
      "name": "ProductCreated",
      "type": "event"
    },
    {
      "anonymous": false,
      "inputs": [
        {
          "indexed": false,
          "internalType": "uint256",
          "name": "id",
          "type": "uint256"
        },
        {
          "indexed": false,
          "internalType": "uint256",
          "name": "stage",
          "type": "uint256"
        }
      ],
      "name": "ProductUpdated",
      "type": "event"
    },
    {
      "inputs": [],
      "name": "productCount",
      "outputs": [
        {
          "internalType": "uint256",
          "name": "",
          "type": "uint256"
        }
      ],
      "stateMutability": "view",
      "type": "function",
      "constant": true
    },
    {
      "inputs": [
        {
          "internalType": "uint256",
          "name": "",
          "type": "uint256"
        }
      ],
      "name": "productIds",
      "outputs": [
        {
          "internalType": "uint256",
          "name": "",
          "type": "uint256"
        }
      ],
      "stateMutability": "view",
      "type": "function",
      "constant": true
    },
    {
      "inputs": [
        {
          "internalType": "uint256",
          "name": "",
          "type": "uint256"
        }
      ],
      "name": "products",
      "outputs": [
        {
          "internalType": "uint256",
          "name": "id",
          "type": "uint256"
        },
        {
          "internalType": "uint256",
          "name": "weight",
          "type": "uint256"
        },
        {
          "internalType": "uint256",
          "name": "price",
          "type": "uint256"
        },
        {
          "internalType": "uint256",
          "name": "stage",
          "type": "uint256"
        }
      ],
      "stateMutability": "view",
      "type": "function",
      "constant": true
    },
    {
      "inputs": [
        {
          "internalType": "uint256",
          "name": "_id",
          "type": "uint256"
        },
        {
          "internalType": "uint256",
          "name": "_weight",
          "type": "uint256"
        },
        {
          "internalType": "uint256",
          "name": "_price",
          "type": "uint256"
        }
      ],
      "name": "createProduct",
      "outputs": [],
      "stateMutability": "nonpayable",
      "type": "function"
    },
    {
      "inputs": [
        {
          "internalType": "uint256",
          "name": "_id",
          "type": "uint256"
        },
        {
          "internalType": "uint256",
          "name": "_stage",
          "type": "uint256"
        }
      ],
      "name": "updateProductStage",
      "outputs": [],
      "stateMutability": "nonpayable",
      "type": "function"
    },
    {
      "inputs": [
        {
          "internalType": "uint256",
          "name": "_id",
          "type": "uint256"
        }
      ],
      "name": "getProduct",
      "outputs": [
        {
          "internalType": "uint256",
          "name": "",
          "type": "uint256"
        },
        {
          "internalType": "uint256",
          "name": "",
          "type": "uint256"
        },
        {
          "internalType": "uint256",
          "name": "",
          "type": "uint256"
        },
        {
          "internalType": "uint256",
          "name": "",
          "type": "uint256"
        }
      ],
      "stateMutability": "view",
      "type": "function",
      "constant": true
    },
    {
      "inputs": [],
      "name": "getAllProductIds",
      "outputs": [
        {
          "internalType": "uint256[]",
          "name": "",
          "type": "uint256[]"
        }
      ],
      "stateMutability": "view",
      "type": "function",
      "constant": true
    }
  ],
  "bytecode": "0x6080604052600060025534801561001557600080fd5b506109ae806100256000396000f3fe608060405234801561001057600080fd5b506004361061007d5760003560e01c8063b9db15b41161005b578063b9db15b4146100ef578063cb51bba914610122578063e0f6ef8714610152578063fc144806146101705761007d565b80632e66371714610082578063663c01af1461009e5780637acc0b20146100bc575b600080fd5b61009c60048036038101906100979190610574565b61018c565b005b6100a6610280565b6040516100b39190610753565b60405180910390f35b6100d660048036038101906100d1919061054b565b6102d8565b6040516100e69493929190610850565b60405180910390f35b6101096004803603810190610104919061054b565b610308565b6040516101199493929190610850565b60405180910390f35b61013c6004803603810190610137919061054b565b6103d4565b60405161014991906107d5565b60405180910390f35b61015a6103f8565b60405161016791906107d5565b60405180910390f35b61018a600480360381019061018591906105b0565b6103fe565b005b60008060008481526020019081526020016000206000015414156101e5576040517f08c379a00000000000000000000000000000000000000000000000000000000081526004016101dc906107b5565b60405180910390fd5b6005811115610229576040517f08c379a000000000000000000000000000000000000000000000000000000000815260040161022090610775565b60405180910390fd5b80600080848152602001908152602001600020600301819055507f1a58b4c176a67828ebe2456bc637af85e69b115be11597e049b0669d13bea99982826040516102749291906107f0565b60405180910390a15050565b606060018054806020026020016040519081016040528092919081815260200182805480156102ce57602002820191906000526020600020905b8154815260200190600101908083116102ba575b5050505050905090565b60006020528060005260406000206000915090508060000154908060010154908060020154908060030154905084565b6000806000806000806000878152602001908152602001600020600001541415610367576040517f08c379a000000000000000000000000000000000000000000000000000000000815260040161035e906107b5565b60405180910390fd5b6000806000878152602001908152602001600020604051806080016040529081600082015481526020016001820154815260200160028201548152602001600382015481525050905080600001518160200151826040015183606001519450945094509450509193509193565b600181815481106103e457600080fd5b906000526020600020016000915090505481565b60025481565b60008060008581526020019081526020016000206000015414610456576040517f08c379a000000000000000000000000000000000000000000000000000000000815260040161044d90610795565b60405180910390fd5b60026000815480929190610469906108e9565b9190505550604051806080016040528084815260200183815260200182815260200160008152506000808581526020019081526020016000206000820151816000015560208201518160010155604082015181600201556060820151816003015590505060018390806001815401808255809150506001900390600052602060002001600090919091909150557f8cc8407e8e312793609edf72bf9634abea0b768b26e1dfbbd3a16e546ab8dc7783838360405161052993929190610819565b60405180910390a1505050565b60008135905061054581610961565b92915050565b60006020828403121561055d57600080fd5b600061056b84828501610536565b91505092915050565b6000806040838503121561058757600080fd5b600061059585828601610536565b92505060206105a685828601610536565b9150509250929050565b6000806000606084860312156105c557600080fd5b60006105d386828701610536565b93505060206105e486828701610536565b92505060406105f586828701610536565b9150509250925092565b600061060b8383610735565b60208301905092915050565b6000610622826108a5565b61062c81856108bd565b935061063783610895565b8060005b8381101561066857815161064f88826105ff565b975061065a836108b0565b92505060018101905061063b565b5085935050505092915050565b6000610682600d836108ce565b91507f496e76616c6964207374616765000000000000000000000000000000000000006000830152602082019050919050565b60006106c26016836108ce565b91507f50726f6475637420616c726561647920657869737473000000000000000000006000830152602082019050919050565b60006107026011836108ce565b91507f50726f64756374206e6f7420666f756e640000000000000000000000000000006000830152602082019050919050565b61073e816108df565b82525050565b61074d816108df565b82525050565b6000602082019050818103600083015261076d8184610617565b905092915050565b6000602082019050818103600083015261078e81610675565b9050919050565b600060208201905081810360008301526107ae816106b5565b9050919050565b600060208201905081810360008301526107ce816106f5565b9050919050565b60006020820190506107ea6000830184610744565b92915050565b60006040820190506108056000830185610744565b6108126020830184610744565b9392505050565b600060608201905061082e6000830186610744565b61083b6020830185610744565b6108486040830184610744565b949350505050565b60006080820190506108656000830187610744565b6108726020830186610744565b61087f6040830185610744565b61088c6060830184610744565b95945050505050565b6000819050602082019050919050565b600081519050919050565b6000602082019050919050565b600082825260208201905092915050565b600082825260208201905092915050565b6000819050919050565b60006108f4826108df565b91507fffffffffffffffffffffffffffffffffffffffffffffffffffffffffffffffff82141561092757610926610932565b5b600182019050919050565b7f4e487b7100000000000000000000000000000000000000000000000000000000600052601160045260246000fd5b61096a816108df565b811461097557600080fd5b5056fea26469706673582212207e0275bd272d65330ee5c80816d3d91dcc941d91cb5fab186411fa6f26ee438464736f6c63430008000033",
  "immutableReferences": {},
  "source": "// SPDX-License-Identifier: MIT\r\npragma solidity ^0.8.0;\r\n\r\ncontract SupplyChain {\r\n    struct Product {\r\n        uint id;\r\n        uint weight;\r\n        uint price;\r\n        uint stage;\r\n    }\r\n\r\n    mapping(uint => Product) public products;\r\n    uint[] public productIds; //  Array to store actual product IDs\r\n    uint public productCount = 0;\r\n\r\n    event ProductCreated(uint id, uint weight, uint price);\r\n    event ProductUpdated(uint id, uint stage);\r\n\r\n    function createProduct(uint _id, uint _weight, uint _price) public {\r\n        require(products[_id].id == 0, \"Product already exists\");\r\n\r\n        productCount++;\r\n        products[_id] = Product(_id, _weight, _price, 0);\r\n        productIds.push(_id); //  Track the ID\r\n        emit ProductCreated(_id, _weight, _price);\r\n    }\r\n\r\n    function updateProductStage(uint _id, uint _stage) public {\r\n        require(products[_id].id != 0, \"Product not found\");\r\n        require(_stage <= 5, \"Invalid stage\");\r\n        products[_id].stage = _stage;\r\n        emit ProductUpdated(_id, _stage);\r\n    }\r\n\r\n    function getProduct(uint _id) public view returns (uint, uint, uint, uint) {\r\n        require(products[_id].id != 0, \"Product not found\");\r\n        Product memory p = products[_id];\r\n        return (p.id, p.weight, p.price, p.stage);\r\n    }\r\n\r\n    //  Function to get all product IDs\r\n    function getAllProductIds() public view returns (uint[] memory) {\r\n        return productIds;\r\n    }\r\n}\r\n",
  "sourcePath": "C:\\Users\\ragha\\OneDrive\\Desktop\\capstone\\contracts\\SupplyChain.sol",
  "compiler": {
    "name": "solc",
    "version": "0.8.0+commit.c7dfd78e.Emscripten.clang"
  },
  "schemaVersion": "3.4.16",
  "updatedAt": "2025-04-18T03:57:13.615Z",
  "networkType": "ethereum",
  "devdoc": {
    "kind": "dev",
    "methods": {},
    "version": 1
  },
  "userdoc": {
    "kind": "user",
    "methods": {},
    "version": 1
  }
}